{
  "contractName": "ConcealProtocol",
  "abi": [
    {
      "anonymous": false,
      "inputs": [
        {
          "indexed": false,
          "internalType": "address",
          "name": "sender",
          "type": "address"
        },
        {
          "indexed": false,
          "internalType": "uint256",
          "name": "amount",
          "type": "uint256"
        }
      ],
      "name": "Deposit",
      "type": "event"
    },
    {
      "anonymous": false,
      "inputs": [
        {
          "indexed": false,
          "internalType": "address",
          "name": "sender",
          "type": "address"
        },
        {
          "indexed": false,
          "internalType": "address",
          "name": "receiver",
          "type": "address"
        },
        {
          "indexed": false,
          "internalType": "uint256",
          "name": "amount",
          "type": "uint256"
        }
      ],
      "name": "Transfer",
      "type": "event"
    },
    {
      "inputs": [],
      "name": "owner",
      "outputs": [
        {
          "internalType": "address",
          "name": "",
          "type": "address"
        }
      ],
      "stateMutability": "view",
      "type": "function",
      "constant": true
    },
    {
      "inputs": [],
      "name": "getBalance",
      "outputs": [
        {
          "internalType": "uint256",
          "name": "",
          "type": "uint256"
        }
      ],
      "stateMutability": "view",
      "type": "function",
      "constant": true
    },
    {
      "inputs": [],
      "name": "getUserBalance",
      "outputs": [
        {
          "internalType": "uint256",
          "name": "",
          "type": "uint256"
        }
      ],
      "stateMutability": "view",
      "type": "function",
      "constant": true
    },
    {
      "inputs": [
        {
          "internalType": "address payable",
          "name": "receiver",
          "type": "address"
        },
        {
          "internalType": "uint256",
          "name": "amount",
          "type": "uint256"
        }
      ],
      "name": "transfer",
      "outputs": [],
      "stateMutability": "nonpayable",
      "type": "function"
    },
    {
      "inputs": [
        {
          "internalType": "address payable",
          "name": "sender",
          "type": "address"
        },
        {
          "internalType": "uint256",
          "name": "amount",
          "type": "uint256"
        }
      ],
      "name": "deposit",
      "outputs": [],
      "stateMutability": "payable",
      "type": "function",
      "payable": true
    }
  ],
  "bytecode": "0x608060405234801561001057600080fd5b506107a0806100206000396000f3fe60806040526004361061004a5760003560e01c806312065fe01461004f57806347e7ef241461007a5780638da5cb5b14610096578063a9059cbb146100c1578063b7013dc1146100ea575b600080fd5b34801561005b57600080fd5b50610064610115565b60405161007191906105d3565b60405180910390f35b610094600480360381019061008f919061042f565b61011d565b005b3480156100a257600080fd5b506100ab6101bb565b6040516100b89190610518565b60405180910390f35b3480156100cd57600080fd5b506100e860048036038101906100e3919061042f565b6101e1565b005b3480156100f657600080fd5b506100ff6103bf565b60405161010c91906105d3565b60405180910390f35b600047905090565b80341461012957600080fd5b7fe1fffcc4923d04b559f4d29a8bfc6cda04eb5b0d3c460751c2402c5c5cc9109c333460405161015a92919061056a565b60405180910390a1346000808473ffffffffffffffffffffffffffffffffffffffff1673ffffffffffffffffffffffffffffffffffffffff16815260200190815260200160002060008282546101b091906105ff565b925050819055505050565b600160009054906101000a900473ffffffffffffffffffffffffffffffffffffffff1681565b806000803373ffffffffffffffffffffffffffffffffffffffff1673ffffffffffffffffffffffffffffffffffffffff168152602001908152602001600020541015610262576040517f08c379a000000000000000000000000000000000000000000000000000000000815260040161025990610593565b60405180910390fd5b7fddf252ad1be2c89b69c2b068fc378daa952ba7f163c4a11628f55a4df523b3ef33838360405161029593929190610533565b60405180910390a18173ffffffffffffffffffffffffffffffffffffffff166108fc829081150290604051600060405180830381858888f19350505050610311576040517f08c379a0000000000000000000000000000000000000000000000000000000008152600401610308906105b3565b60405180910390fd5b806000803373ffffffffffffffffffffffffffffffffffffffff1673ffffffffffffffffffffffffffffffffffffffff168152602001908152602001600020600082825461035f9190610655565b92505081905550806000808473ffffffffffffffffffffffffffffffffffffffff1673ffffffffffffffffffffffffffffffffffffffff16815260200190815260200160002060008282546103b491906105ff565b925050819055505050565b60008060003373ffffffffffffffffffffffffffffffffffffffff1673ffffffffffffffffffffffffffffffffffffffff16815260200190815260200160002054905090565b6000813590506104148161073c565b92915050565b60008135905061042981610753565b92915050565b6000806040838503121561044257600080fd5b600061045085828601610405565b92505060206104618582860161041a565b9150509250929050565b610474816106d7565b82525050565b61048381610689565b82525050565b60006104966012836105ee565b91507f496e73756666696369656e742066756e647300000000000000000000000000006000830152602082019050919050565b60006104d66012836105ee565b91507f7472616e73616374696f6e206661696c656400000000000000000000000000006000830152602082019050919050565b610512816106cd565b82525050565b600060208201905061052d600083018461047a565b92915050565b6000606082019050610548600083018661047a565b610555602083018561046b565b6105626040830184610509565b949350505050565b600060408201905061057f600083018561047a565b61058c6020830184610509565b9392505050565b600060208201905081810360008301526105ac81610489565b9050919050565b600060208201905081810360008301526105cc816104c9565b9050919050565b60006020820190506105e86000830184610509565b92915050565b600082825260208201905092915050565b600061060a826106cd565b9150610615836106cd565b9250827fffffffffffffffffffffffffffffffffffffffffffffffffffffffffffffffff0382111561064a5761064961070d565b5b828201905092915050565b6000610660826106cd565b915061066b836106cd565b92508282101561067e5761067d61070d565b5b828203905092915050565b6000610694826106ad565b9050919050565b60006106a6826106ad565b9050919050565b600073ffffffffffffffffffffffffffffffffffffffff82169050919050565b6000819050919050565b60006106e2826106e9565b9050919050565b60006106f4826106fb565b9050919050565b6000610706826106ad565b9050919050565b7f4e487b7100000000000000000000000000000000000000000000000000000000600052601160045260246000fd5b6107458161069b565b811461075057600080fd5b50565b61075c816106cd565b811461076757600080fd5b5056fea2646970667358221220455a0c7f2069e4d63fac61b83b9904ff3f182f512a5e7226506171eb0279413364736f6c63430008000033",
  "immutableReferences": {},
  "source": "// SPDX-License-Identifier: MIT\npragma solidity ^0.8.0;\n\ncontract ConcealProtocol {\n\n    mapping (address => uint) private balances;\n    address public owner;\n\n    event Deposit(address sender, uint amount);\n    event Transfer(address sender, address receiver, uint amount);\n\n    function getBalance() public view returns (uint256) {\n        return address(this).balance;\n    }\n\n    function getUserBalance() public view returns (uint256) {\n        return balances[msg.sender];\n    }\n\n    function transfer(address payable receiver, uint amount) public {\n        require(balances[msg.sender] >= amount, \"Insufficient funds\");\n        emit Transfer(msg.sender, receiver, amount);\n        if(!receiver.send(amount)){\n            revert(\"transaction failed\");\n        }\n        balances[msg.sender] -= amount;\n        balances[receiver] += amount;\n    }\n\n    function deposit(address payable sender, uint256 amount) payable public {\n        require(msg.value == amount);\n        emit Deposit(msg.sender, msg.value);\n        balances[sender] += msg.value;\n    }\n}",
  "sourcePath": "/Users/gautam/Documents/Semilla-Labs-Dev/contracts/contracts/ConcealProtocol.sol",
  "compiler": {
    "name": "solc",
    "version": "0.8.0+commit.c7dfd78e.Emscripten.clang"
  },
  "schemaVersion": "3.2.3",
  "updatedAt": "2022-01-06T11:18:27.271Z",
  "networkType": "ethereum",
  "devdoc": {
    "kind": "dev",
    "methods": {},
    "version": 1
  },
  "userdoc": {
    "kind": "user",
    "methods": {},
    "version": 1
  }
}