{
  "contractName": "ConcealProtocol",
  "abi": [
    {
      "anonymous": false,
      "inputs": [
        {
          "indexed": false,
          "internalType": "address",
          "name": "sender",
          "type": "address"
        },
        {
          "indexed": false,
          "internalType": "uint256",
          "name": "amount",
          "type": "uint256"
        }
      ],
      "name": "Deposit",
      "type": "event"
    },
    {
      "anonymous": false,
      "inputs": [
        {
          "indexed": false,
          "internalType": "address",
          "name": "sender",
          "type": "address"
        },
        {
          "indexed": false,
          "internalType": "address",
          "name": "receiver",
          "type": "address"
        },
        {
          "indexed": false,
          "internalType": "uint256",
          "name": "amount",
          "type": "uint256"
        }
      ],
      "name": "Transfer",
      "type": "event"
    },
    {
      "inputs": [],
      "name": "owner",
      "outputs": [
        {
          "internalType": "address",
          "name": "",
          "type": "address"
        }
      ],
      "stateMutability": "view",
      "type": "function",
      "constant": true
    },
    {
      "inputs": [],
      "name": "getBalance",
      "outputs": [
        {
          "internalType": "uint256",
          "name": "",
          "type": "uint256"
        }
      ],
      "stateMutability": "view",
      "type": "function",
      "constant": true
    },
    {
      "inputs": [],
      "name": "getUserBalance",
      "outputs": [
        {
          "internalType": "uint256",
          "name": "",
          "type": "uint256"
        }
      ],
      "stateMutability": "view",
      "type": "function",
      "constant": true
    },
    {
      "inputs": [
        {
          "internalType": "address payable",
          "name": "sender",
          "type": "address"
        },
        {
          "internalType": "address payable",
          "name": "receiver",
          "type": "address"
        },
        {
          "internalType": "uint256",
          "name": "amount",
          "type": "uint256"
        }
      ],
      "name": "transfer",
      "outputs": [],
      "stateMutability": "nonpayable",
      "type": "function"
    },
    {
      "inputs": [
        {
          "internalType": "address payable",
          "name": "sender",
          "type": "address"
        },
        {
          "internalType": "uint256",
          "name": "amount",
          "type": "uint256"
        }
      ],
      "name": "deposit",
      "outputs": [],
      "stateMutability": "payable",
      "type": "function",
      "payable": true
    }
  ],
  "bytecode": "0x608060405234801561001057600080fd5b506107f0806100206000396000f3fe60806040526004361061004a5760003560e01c806312065fe01461004f57806347e7ef241461007a5780638da5cb5b14610096578063b7013dc1146100c1578063beabacc8146100ec575b600080fd5b34801561005b57600080fd5b50610064610115565b6040516100719190610623565b60405180910390f35b610094600480360381019061008f919061047f565b61011d565b005b3480156100a257600080fd5b506100ab6101bb565b6040516100b89190610568565b60405180910390f35b3480156100cd57600080fd5b506100d66101e1565b6040516100e39190610623565b60405180910390f35b3480156100f857600080fd5b50610113600480360381019061010e9190610430565b610227565b005b600047905090565b80341461012957600080fd5b7fe1fffcc4923d04b559f4d29a8bfc6cda04eb5b0d3c460751c2402c5c5cc9109c333460405161015a9291906105ba565b60405180910390a1346000808473ffffffffffffffffffffffffffffffffffffffff1673ffffffffffffffffffffffffffffffffffffffff16815260200190815260200160002060008282546101b0919061064f565b925050819055505050565b600160009054906101000a900473ffffffffffffffffffffffffffffffffffffffff1681565b60008060003373ffffffffffffffffffffffffffffffffffffffff1673ffffffffffffffffffffffffffffffffffffffff16815260200190815260200160002054905090565b806000808573ffffffffffffffffffffffffffffffffffffffff1673ffffffffffffffffffffffffffffffffffffffff1681526020019081526020016000205410156102a8576040517f08c379a000000000000000000000000000000000000000000000000000000000815260040161029f906105e3565b60405180910390fd5b7fddf252ad1be2c89b69c2b068fc378daa952ba7f163c4a11628f55a4df523b3ef8383836040516102db93929190610583565b60405180910390a18173ffffffffffffffffffffffffffffffffffffffff166108fc829081150290604051600060405180830381858888f19350505050610357576040517f08c379a000000000000000000000000000000000000000000000000000000000815260040161034e90610603565b60405180910390fd5b806000808573ffffffffffffffffffffffffffffffffffffffff1673ffffffffffffffffffffffffffffffffffffffff16815260200190815260200160002060008282546103a591906106a5565b92505081905550806000808473ffffffffffffffffffffffffffffffffffffffff1673ffffffffffffffffffffffffffffffffffffffff16815260200190815260200160002060008282546103fa919061064f565b92505081905550505050565b6000813590506104158161078c565b92915050565b60008135905061042a816107a3565b92915050565b60008060006060848603121561044557600080fd5b600061045386828701610406565b935050602061046486828701610406565b92505060406104758682870161041b565b9150509250925092565b6000806040838503121561049257600080fd5b60006104a085828601610406565b92505060206104b18582860161041b565b9150509250929050565b6104c481610727565b82525050565b6104d3816106d9565b82525050565b60006104e660128361063e565b91507f496e73756666696369656e742066756e647300000000000000000000000000006000830152602082019050919050565b600061052660128361063e565b91507f7472616e73616374696f6e206661696c656400000000000000000000000000006000830152602082019050919050565b6105628161071d565b82525050565b600060208201905061057d60008301846104ca565b92915050565b600060608201905061059860008301866104bb565b6105a560208301856104bb565b6105b26040830184610559565b949350505050565b60006040820190506105cf60008301856104ca565b6105dc6020830184610559565b9392505050565b600060208201905081810360008301526105fc816104d9565b9050919050565b6000602082019050818103600083015261061c81610519565b9050919050565b60006020820190506106386000830184610559565b92915050565b600082825260208201905092915050565b600061065a8261071d565b91506106658361071d565b9250827fffffffffffffffffffffffffffffffffffffffffffffffffffffffffffffffff0382111561069a5761069961075d565b5b828201905092915050565b60006106b08261071d565b91506106bb8361071d565b9250828210156106ce576106cd61075d565b5b828203905092915050565b60006106e4826106fd565b9050919050565b60006106f6826106fd565b9050919050565b600073ffffffffffffffffffffffffffffffffffffffff82169050919050565b6000819050919050565b600061073282610739565b9050919050565b60006107448261074b565b9050919050565b6000610756826106fd565b9050919050565b7f4e487b7100000000000000000000000000000000000000000000000000000000600052601160045260246000fd5b610795816106eb565b81146107a057600080fd5b50565b6107ac8161071d565b81146107b757600080fd5b5056fea2646970667358221220d327f6c16d6ac0464c4bd1a039154544b0dc8d1ac85b6971f33a500556137c3e64736f6c63430008000033",
  "immutableReferences": {},
  "source": "// SPDX-License-Identifier: MIT\npragma solidity ^0.8.0;\n\ncontract ConcealProtocol {\n\n    mapping (address => uint) private balances;\n    address public owner;\n\n    event Deposit(address sender, uint amount);\n    event Transfer(address sender, address receiver, uint amount);\n\n    function getBalance() public view returns (uint256) {\n        return address(this).balance;\n    }\n\n    function getUserBalance() public view returns (uint256) {\n        return balances[msg.sender];\n    }\n\n    function transfer(address payable sender, address payable receiver, uint amount) public {\n        require(balances[sender] >= amount, \"Insufficient funds\");\n        emit Transfer(sender, receiver, amount);\n        if(!receiver.send(amount)){\n            revert(\"transaction failed\");\n        }\n        balances[sender] -= amount;\n        balances[receiver] += amount;\n    }\n\n    function deposit(address payable sender, uint256 amount) payable public {\n        require(msg.value == amount);\n        emit Deposit(msg.sender, msg.value);\n        balances[sender] += msg.value;\n    }\n}",
  "sourcePath": "/Users/gautam/Documents/Semilla-Labs-Dev/contracts/contracts/ConcealProtocol.sol",
  "compiler": {
    "name": "solc",
    "version": "0.8.0+commit.c7dfd78e.Emscripten.clang"
  },
  "schemaVersion": "3.2.3",
  "updatedAt": "2022-01-08T10:53:34.222Z",
  "networkType": "ethereum",
  "devdoc": {
    "kind": "dev",
    "methods": {},
    "version": 1
  },
  "userdoc": {
    "kind": "user",
    "methods": {},
    "version": 1
  }
}