{
  "contractName": "ConcealProtocol",
  "abi": [
    {
      "inputs": [],
      "name": "getBalance",
      "outputs": [
        {
          "internalType": "uint256",
          "name": "",
          "type": "uint256"
        }
      ],
      "stateMutability": "view",
      "type": "function",
      "constant": true
    },
    {
      "inputs": [
        {
          "internalType": "address payable",
          "name": "_to",
          "type": "address"
        }
      ],
      "name": "transfer",
      "outputs": [],
      "stateMutability": "payable",
      "type": "function",
      "payable": true
    },
    {
      "inputs": [
        {
          "internalType": "uint256",
          "name": "amount",
          "type": "uint256"
        }
      ],
      "name": "deposit",
      "outputs": [],
      "stateMutability": "payable",
      "type": "function",
      "payable": true
    }
  ],
  "bytecode": "0x608060405234801561001057600080fd5b50610357806100206000396000f3fe6080604052600436106100345760003560e01c806312065fe0146100395780631a69523014610064578063b6b55f2514610080575b600080fd5b34801561004557600080fd5b5061004e61009c565b60405161005b9190610280565b60405180910390f35b61007e60048036038101906100799190610190565b6100a4565b005b61009a600480360381019061009591906101b9565b610157565b005b600047905090565b6000808273ffffffffffffffffffffffffffffffffffffffff16346040516100cb9061024b565b60006040518083038185875af1925050503d8060008114610108576040519150601f19603f3d011682016040523d82523d6000602084013e61010d565b606091505b509150915081610152576040517f08c379a000000000000000000000000000000000000000000000000000000000815260040161014990610260565b60405180910390fd5b505050565b80341461016357600080fd5b50565b600081359050610175816102f3565b92915050565b60008135905061018a8161030a565b92915050565b6000602082840312156101a257600080fd5b60006101b084828501610166565b91505092915050565b6000602082840312156101cb57600080fd5b60006101d98482850161017b565b91505092915050565b60006101ef600e836102a6565b91507f4574686572206e6f742073656e740000000000000000000000000000000000006000830152602082019050919050565b600061022f60008361029b565b9150600082019050919050565b610245816102e9565b82525050565b600061025682610222565b9150819050919050565b60006020820190508181036000830152610279816101e2565b9050919050565b6000602082019050610295600083018461023c565b92915050565b600081905092915050565b600082825260208201905092915050565b60006102c2826102c9565b9050919050565b600073ffffffffffffffffffffffffffffffffffffffff82169050919050565b6000819050919050565b6102fc816102b7565b811461030757600080fd5b50565b610313816102e9565b811461031e57600080fd5b5056fea26469706673582212202c58f0369ffd6b1e278f8b0179eb29bc97dd9df36f0774cfd4c100e3386e562864736f6c63430008000033",
  "immutableReferences": {},
  "source": "// SPDX-License-Identifier: MIT\npragma solidity ^0.8.0;\n\ncontract ConcealProtocol {\n\n    function getBalance() public view returns (uint256) {\n        return address(this).balance;\n    }\n\n    function transfer(address payable _to) public payable {\n        (bool sent, bytes memory data) = _to.call{value: msg.value}(\"\");\n        require(sent, \"Ether not sent\");\n    }\n\n    function deposit(uint256 amount) payable public {\n        require(msg.value == amount);\n    }\n}",
  "sourcePath": "/Users/gautam/Documents/Semilla-Labs-Dev/smart-contracts/contracts/ConcealProtocol.sol",
  "compiler": {
    "name": "solc",
    "version": "0.8.0+commit.c7dfd78e.Emscripten.clang"
  },
  "schemaVersion": "3.2.3",
  "updatedAt": "2022-01-04T11:58:57.210Z",
  "networkType": "ethereum",
  "devdoc": {
    "kind": "dev",
    "methods": {},
    "version": 1
  },
  "userdoc": {
    "kind": "user",
    "methods": {},
    "version": 1
  }
}