{
  "contractName": "ERC20MMorphose",
  "abi": [
    {
      "inputs": [
        {
          "internalType": "contract IVerifier",
          "name": "_verifier",
          "type": "address"
        },
        {
          "internalType": "contract IFeeManager",
          "name": "_feeManager",
          "type": "address"
        },
        {
          "internalType": "uint256",
          "name": "_denomination",
          "type": "uint256"
        },
        {
          "internalType": "uint32",
          "name": "_merkleTreeHeight",
          "type": "uint32"
        },
        {
          "internalType": "address",
          "name": "_owner",
          "type": "address"
        },
        {
          "internalType": "address",
          "name": "_token",
          "type": "address"
        },
        {
          "internalType": "address",
          "name": "_governance",
          "type": "address"
        },
        {
          "internalType": "contract ILendingPoolCore",
          "name": "_core",
          "type": "address"
        },
        {
          "internalType": "contract ILendingPool",
          "name": "_pool",
          "type": "address"
        }
      ],
      "payable": false,
      "stateMutability": "nonpayable",
      "type": "constructor"
    },
    {
      "anonymous": false,
      "inputs": [
        {
          "indexed": true,
          "internalType": "bytes32",
          "name": "commitment",
          "type": "bytes32"
        },
        {
          "indexed": false,
          "internalType": "uint32",
          "name": "leafIndex",
          "type": "uint32"
        },
        {
          "indexed": false,
          "internalType": "uint256",
          "name": "timestamp",
          "type": "uint256"
        }
      ],
      "name": "Deposit",
      "type": "event"
    },
    {
      "anonymous": false,
      "inputs": [
        {
          "indexed": true,
          "internalType": "address",
          "name": "sender",
          "type": "address"
        },
        {
          "indexed": false,
          "internalType": "bytes",
          "name": "encryptedNote",
          "type": "bytes"
        }
      ],
      "name": "EncryptedNote",
      "type": "event"
    },
    {
      "anonymous": false,
      "inputs": [
        {
          "indexed": true,
          "internalType": "address",
          "name": "previousOwner",
          "type": "address"
        },
        {
          "indexed": true,
          "internalType": "address",
          "name": "newOwner",
          "type": "address"
        }
      ],
      "name": "OwnershipTransferred",
      "type": "event"
    },
    {
      "anonymous": false,
      "inputs": [
        {
          "indexed": true,
          "internalType": "address",
          "name": "previousVerifier",
          "type": "address"
        },
        {
          "indexed": true,
          "internalType": "address",
          "name": "newVerifier",
          "type": "address"
        }
      ],
      "name": "VerifierChanged",
      "type": "event"
    },
    {
      "anonymous": false,
      "inputs": [
        {
          "indexed": false,
          "internalType": "address",
          "name": "to",
          "type": "address"
        },
        {
          "indexed": false,
          "internalType": "bytes32",
          "name": "nullifierHash",
          "type": "bytes32"
        },
        {
          "indexed": true,
          "internalType": "address",
          "name": "relayer",
          "type": "address"
        },
        {
          "indexed": false,
          "internalType": "uint256",
          "name": "fee",
          "type": "uint256"
        }
      ],
      "name": "Withdrawal",
      "type": "event"
    },
    {
      "constant": true,
      "inputs": [],
      "name": "FIELD_SIZE",
      "outputs": [
        {
          "internalType": "uint256",
          "name": "",
          "type": "uint256"
        }
      ],
      "payable": false,
      "stateMutability": "view",
      "type": "function"
    },
    {
      "constant": true,
      "inputs": [],
      "name": "MOOLA_REFERRAL_CODE",
      "outputs": [
        {
          "internalType": "uint16",
          "name": "",
          "type": "uint16"
        }
      ],
      "payable": false,
      "stateMutability": "view",
      "type": "function"
    },
    {
      "constant": true,
      "inputs": [],
      "name": "ROOT_HISTORY_SIZE",
      "outputs": [
        {
          "internalType": "uint32",
          "name": "",
          "type": "uint32"
        }
      ],
      "payable": false,
      "stateMutability": "view",
      "type": "function"
    },
    {
      "constant": true,
      "inputs": [],
      "name": "ZERO_VALUE",
      "outputs": [
        {
          "internalType": "uint256",
          "name": "",
          "type": "uint256"
        }
      ],
      "payable": false,
      "stateMutability": "view",
      "type": "function"
    },
    {
      "constant": true,
      "inputs": [],
      "name": "aToken",
      "outputs": [
        {
          "internalType": "contract IAToken",
          "name": "",
          "type": "address"
        }
      ],
      "payable": false,
      "stateMutability": "view",
      "type": "function"
    },
    {
      "constant": false,
      "inputs": [
        {
          "internalType": "address",
          "name": "_newOwner",
          "type": "address"
        }
      ],
      "name": "changeOwner",
      "outputs": [],
      "payable": false,
      "stateMutability": "nonpayable",
      "type": "function"
    },
    {
      "constant": true,
      "inputs": [
        {
          "internalType": "bytes32",
          "name": "",
          "type": "bytes32"
        }
      ],
      "name": "commitments",
      "outputs": [
        {
          "internalType": "bool",
          "name": "",
          "type": "bool"
        }
      ],
      "payable": false,
      "stateMutability": "view",
      "type": "function"
    },
    {
      "constant": true,
      "inputs": [],
      "name": "core",
      "outputs": [
        {
          "internalType": "contract ILendingPoolCore",
          "name": "",
          "type": "address"
        }
      ],
      "payable": false,
      "stateMutability": "view",
      "type": "function"
    },
    {
      "constant": true,
      "inputs": [],
      "name": "currentRootIndex",
      "outputs": [
        {
          "internalType": "uint32",
          "name": "",
          "type": "uint32"
        }
      ],
      "payable": false,
      "stateMutability": "view",
      "type": "function"
    },
    {
      "constant": true,
      "inputs": [],
      "name": "denomination",
      "outputs": [
        {
          "internalType": "uint256",
          "name": "",
          "type": "uint256"
        }
      ],
      "payable": false,
      "stateMutability": "view",
      "type": "function"
    },
    {
      "constant": false,
      "inputs": [
        {
          "internalType": "bytes32",
          "name": "_commitment",
          "type": "bytes32"
        },
        {
          "internalType": "bytes",
          "name": "_encryptedNote",
          "type": "bytes"
        }
      ],
      "name": "deposit",
      "outputs": [],
      "payable": true,
      "stateMutability": "payable",
      "type": "function"
    },
    {
      "constant": true,
      "inputs": [],
      "name": "feeManager",
      "outputs": [
        {
          "internalType": "contract IFeeManager",
          "name": "",
          "type": "address"
        }
      ],
      "payable": false,
      "stateMutability": "view",
      "type": "function"
    },
    {
      "constant": true,
      "inputs": [
        {
          "internalType": "uint256",
          "name": "",
          "type": "uint256"
        }
      ],
      "name": "filledSubtrees",
      "outputs": [
        {
          "internalType": "bytes32",
          "name": "",
          "type": "bytes32"
        }
      ],
      "payable": false,
      "stateMutability": "view",
      "type": "function"
    },
    {
      "constant": true,
      "inputs": [],
      "name": "getLastRoot",
      "outputs": [
        {
          "internalType": "bytes32",
          "name": "",
          "type": "bytes32"
        }
      ],
      "payable": false,
      "stateMutability": "view",
      "type": "function"
    },
    {
      "constant": true,
      "inputs": [],
      "name": "governance",
      "outputs": [
        {
          "internalType": "address",
          "name": "",
          "type": "address"
        }
      ],
      "payable": false,
      "stateMutability": "view",
      "type": "function"
    },
    {
      "constant": false,
      "inputs": [
        {
          "internalType": "contract IERC20",
          "name": "_token",
          "type": "address"
        }
      ],
      "name": "governanceClaim",
      "outputs": [],
      "payable": false,
      "stateMutability": "nonpayable",
      "type": "function"
    },
    {
      "constant": true,
      "inputs": [
        {
          "internalType": "bytes32",
          "name": "_left",
          "type": "bytes32"
        },
        {
          "internalType": "bytes32",
          "name": "_right",
          "type": "bytes32"
        }
      ],
      "name": "hashLeftRight",
      "outputs": [
        {
          "internalType": "bytes32",
          "name": "",
          "type": "bytes32"
        }
      ],
      "payable": false,
      "stateMutability": "pure",
      "type": "function"
    },
    {
      "constant": true,
      "inputs": [
        {
          "internalType": "bytes32",
          "name": "_root",
          "type": "bytes32"
        }
      ],
      "name": "isKnownRoot",
      "outputs": [
        {
          "internalType": "bool",
          "name": "",
          "type": "bool"
        }
      ],
      "payable": false,
      "stateMutability": "view",
      "type": "function"
    },
    {
      "constant": true,
      "inputs": [
        {
          "internalType": "bytes32",
          "name": "_nullifierHash",
          "type": "bytes32"
        }
      ],
      "name": "isSpent",
      "outputs": [
        {
          "internalType": "bool",
          "name": "",
          "type": "bool"
        }
      ],
      "payable": false,
      "stateMutability": "view",
      "type": "function"
    },
    {
      "constant": true,
      "inputs": [
        {
          "internalType": "bytes32[]",
          "name": "_nullifierHashes",
          "type": "bytes32[]"
        }
      ],
      "name": "isSpentArray",
      "outputs": [
        {
          "internalType": "bool[]",
          "name": "spent",
          "type": "bool[]"
        }
      ],
      "payable": false,
      "stateMutability": "view",
      "type": "function"
    },
    {
      "constant": true,
      "inputs": [],
      "name": "levels",
      "outputs": [
        {
          "internalType": "uint32",
          "name": "",
          "type": "uint32"
        }
      ],
      "payable": false,
      "stateMutability": "view",
      "type": "function"
    },
    {
      "constant": true,
      "inputs": [],
      "name": "nextIndex",
      "outputs": [
        {
          "internalType": "uint32",
          "name": "",
          "type": "uint32"
        }
      ],
      "payable": false,
      "stateMutability": "view",
      "type": "function"
    },
    {
      "constant": true,
      "inputs": [
        {
          "internalType": "bytes32",
          "name": "",
          "type": "bytes32"
        }
      ],
      "name": "nullifierHashes",
      "outputs": [
        {
          "internalType": "bool",
          "name": "",
          "type": "bool"
        }
      ],
      "payable": false,
      "stateMutability": "view",
      "type": "function"
    },
    {
      "constant": true,
      "inputs": [],
      "name": "owner",
      "outputs": [
        {
          "internalType": "address",
          "name": "",
          "type": "address"
        }
      ],
      "payable": false,
      "stateMutability": "view",
      "type": "function"
    },
    {
      "constant": true,
      "inputs": [],
      "name": "pool",
      "outputs": [
        {
          "internalType": "contract ILendingPool",
          "name": "",
          "type": "address"
        }
      ],
      "payable": false,
      "stateMutability": "view",
      "type": "function"
    },
    {
      "constant": true,
      "inputs": [
        {
          "internalType": "uint256",
          "name": "",
          "type": "uint256"
        }
      ],
      "name": "roots",
      "outputs": [
        {
          "internalType": "bytes32",
          "name": "",
          "type": "bytes32"
        }
      ],
      "payable": false,
      "stateMutability": "view",
      "type": "function"
    },
    {
      "constant": true,
      "inputs": [],
      "name": "token",
      "outputs": [
        {
          "internalType": "address",
          "name": "",
          "type": "address"
        }
      ],
      "payable": false,
      "stateMutability": "view",
      "type": "function"
    },
    {
      "constant": true,
      "inputs": [],
      "name": "totalDepositBalance",
      "outputs": [
        {
          "internalType": "uint256",
          "name": "",
          "type": "uint256"
        }
      ],
      "payable": false,
      "stateMutability": "view",
      "type": "function"
    },
    {
      "constant": false,
      "inputs": [
        {
          "internalType": "address",
          "name": "_newVerifier",
          "type": "address"
        }
      ],
      "name": "updateVerifier",
      "outputs": [],
      "payable": false,
      "stateMutability": "nonpayable",
      "type": "function"
    },
    {
      "constant": true,
      "inputs": [],
      "name": "verifier",
      "outputs": [
        {
          "internalType": "contract IVerifier",
          "name": "",
          "type": "address"
        }
      ],
      "payable": false,
      "stateMutability": "view",
      "type": "function"
    },
    {
      "constant": false,
      "inputs": [
        {
          "internalType": "bytes",
          "name": "_proof",
          "type": "bytes"
        },
        {
          "internalType": "bytes32",
          "name": "_root",
          "type": "bytes32"
        },
        {
          "internalType": "bytes32",
          "name": "_nullifierHash",
          "type": "bytes32"
        },
        {
          "internalType": "address payable",
          "name": "_recipient",
          "type": "address"
        },
        {
          "internalType": "address payable",
          "name": "_relayer",
          "type": "address"
        },
        {
          "internalType": "uint256",
          "name": "_fee",
          "type": "uint256"
        },
        {
          "internalType": "uint256",
          "name": "_refund",
          "type": "uint256"
        }
      ],
      "name": "withdraw",
      "outputs": [],
      "payable": true,
      "stateMutability": "payable",
      "type": "function"
    },
    {
      "constant": true,
      "inputs": [
        {
          "internalType": "uint256",
          "name": "",
          "type": "uint256"
        }
      ],
      "name": "zeros",
      "outputs": [
        {
          "internalType": "bytes32",
          "name": "",
          "type": "bytes32"
        }
      ],
      "payable": false,
      "stateMutability": "view",
      "type": "function"
    }
  ],
  "bytecode": "0x6080604052600380546001600160401b03191690553480156200002157600080fd5b5060405162002b7438038062002b7483398181016040526101208110156200004857600080fd5b508051602082015160408301516060840151608085015160a086015160c087015160e0880151610100909801519697959694959394929391929091908888888888888886868686868685858585858163ffffffff8116620000db5760405162461bcd60e51b815260040180806020018281038252602781526020018062002aeb6027913960400191505060405180910390fd5b60208163ffffffff1610620001225760405162461bcd60e51b815260040180806020018281038252602281526020018062002b326022913960400191505060405180910390fd5b6000805463ffffffff191663ffffffff83161781556002805460018181019092557f2fe54c60d3acabf3343a35b6eba15db4821b340f76e741e2249685ed4899af6c60008051602062002aaa833981519152909101819055815480830183559282905260008051602062002b548339815191529092018290555b60005463ffffffff90811690821610156200021057620001c682806001600160e01b036200048116565b60028054600181810190925560008051602062002aaa8339815191520182905580548082018255600082905260008051602062002b5483398151915201829055909250016200019c565b506200022681806001600160e01b036200048116565b60046000015550506068805460ff1916600117905582620002795760405162461bcd60e51b815260040180806020018281038252602581526020018062002a856025913960400191505060405180910390fd5b84606c60006101000a8154816001600160a01b0302191690836001600160a01b0316021790555083606d60006101000a8154816001600160a01b0302191690836001600160a01b0316021790555080606e60006101000a8154816001600160a01b0302191690836001600160a01b0316021790555082606981905550505050505080606f60006101000a8154816001600160a01b0302191690836001600160a01b0316021790555050505050505080607060006101000a8154816001600160a01b0302191690836001600160a01b031602179055505050505050505081607260006101000a8154816001600160a01b0302191690836001600160a01b0316021790555080607360006101000a8154816001600160a01b0302191690836001600160a01b03160217905550607260009054906101000a90046001600160a01b03166001600160a01b03166334b3beee606f60009054906101000a90046001600160a01b03166040518263ffffffff1660e01b815260040180826001600160a01b03166001600160a01b0316815260200191505060206040518083038186803b1580156200042457600080fd5b505afa15801562000439573d6000803e3d6000fd5b505050506040513d60208110156200045057600080fd5b5051607480546001600160a01b0319166001600160a01b03909216919091179055506200066e975050505050505050565b600060008051602062002b128339815191528310620004e7576040805162461bcd60e51b815260206004820181905260248201527f5f6c6566742073686f756c6420626520696e7369646520746865206669656c64604482015290519081900360640190fd5b60008051602062002b128339815191528210620005365760405162461bcd60e51b815260040180806020018281038252602181526020018062002aca6021913960400191505060405180910390fd5b6040805163f47d33b560e01b81526004810185905260006024820181905282518693919273__Hasher________________________________9263f47d33b592604480840193829003018186803b1580156200059157600080fd5b505af4158015620005a6573d6000803e3d6000fd5b505050506040513d6040811015620005bd57600080fd5b508051602090910151909250905060008051602062002b12833981519152848308915073__Hasher________________________________63f47d33b583836040518363ffffffff1660e01b81526004018083815260200182815260200192505050604080518083038186803b1580156200063757600080fd5b505af41580156200064c573d6000803e3d6000fd5b505050506040513d60408110156200066357600080fd5b505195945050505050565b612407806200067e6000396000f3fe6080604052600436106101e35760003560e01c8063a0c1f15e11610102578063e5285dcc11610095578063f178e47c11610064578063f178e47c14610735578063f2f4eb261461075f578063fc0c546a14610774578063fc7e9c6f14610789576101e3565b8063e5285dcc146106b7578063e8295588146106e1578063e8c0a0df1461070b578063ec73295914610720576101e3565b8063cd87a3b4116100d1578063cd87a3b4146105ec578063d0fb020314610601578063d6ed87f914610616578063e29973fc14610642576101e3565b8063a0c1f15e14610565578063a6f9dae11461057a578063ba70f757146105ad578063c2b40ae4146105c2576101e3565b80635aa6e6751161017a5780638da5cb5b116101495780638da5cb5b1461043d57806390eeb02b1461045257806397fc007c146104675780639fa12d0b1461049a576101e3565b80635aa6e675146103bf5780636d9833e3146103d4578063839df945146103fe5780638bca6d1614610428576101e3565b806338bf282e116101b657806338bf282e14610307578063414a37ba146103495780634ecf518b1461035e578063560cdfbd1461038c576101e3565b806316f0115b146101e857806317cc915c1461021957806321a0adb6146102575780632b7ac3f3146102f2575b600080fd5b3480156101f457600080fd5b506101fd61079e565b604080516001600160a01b039092168252519081900360200190f35b34801561022557600080fd5b506102436004803603602081101561023c57600080fd5b50356107ad565b604080519115158252519081900360200190f35b6102f0600480360360e081101561026d57600080fd5b810190602081018135600160201b81111561028757600080fd5b82018360208201111561029957600080fd5b803590602001918460018302840111600160201b831117156102ba57600080fd5b91935091508035906020810135906001600160a01b03604082013581169160608101359091169060808101359060a001356107c2565b005b3480156102fe57600080fd5b506101fd610b0f565b34801561031357600080fd5b506103376004803603604081101561032a57600080fd5b5080359060200135610b1e565b60408051918252519081900360200190f35b34801561035557600080fd5b50610337610cff565b34801561036a57600080fd5b50610373610d11565b6040805163ffffffff9092168252519081900360200190f35b34801561039857600080fd5b506102f0600480360360208110156103af57600080fd5b50356001600160a01b0316610d1d565b3480156103cb57600080fd5b506101fd610e2e565b3480156103e057600080fd5b50610243600480360360208110156103f757600080fd5b5035610e3d565b34801561040a57600080fd5b506102436004803603602081101561042157600080fd5b5035610eb0565b34801561043457600080fd5b50610337610ec5565b34801561044957600080fd5b506101fd610ecb565b34801561045e57600080fd5b50610373610eda565b34801561047357600080fd5b506102f06004803603602081101561048a57600080fd5b50356001600160a01b0316610ee6565b3480156104a657600080fd5b50610515600480360360208110156104bd57600080fd5b810190602081018135600160201b8111156104d757600080fd5b8201836020820111156104e957600080fd5b803590602001918460208302840111600160201b8311171561050a57600080fd5b509092509050610f8b565b60408051602080825283518183015283519192839290830191858101910280838360005b83811015610551578181015183820152602001610539565b505050509050019250505060405180910390f35b34801561057157600080fd5b506101fd611013565b34801561058657600080fd5b506102f06004803603602081101561059d57600080fd5b50356001600160a01b0316611022565b3480156105b957600080fd5b506103376110c7565b3480156105ce57600080fd5b50610337600480360360208110156105e557600080fd5b50356110e7565b3480156105f857600080fd5b506103736110fb565b34801561060d57600080fd5b506101fd611100565b34801561062257600080fd5b5061062b61110f565b6040805161ffff9092168252519081900360200190f35b6102f06004803603604081101561065857600080fd5b81359190810190604081016020820135600160201b81111561067957600080fd5b82018360208201111561068b57600080fd5b803590602001918460018302840111600160201b831117156106ac57600080fd5b509092509050611115565b3480156106c357600080fd5b50610243600480360360208110156106da57600080fd5b50356112ae565b3480156106ed57600080fd5b506103376004803603602081101561070457600080fd5b50356112c3565b34801561071757600080fd5b506103376112e1565b34801561072c57600080fd5b506103376112e7565b34801561074157600080fd5b506103376004803603602081101561075857600080fd5b503561130b565b34801561076b57600080fd5b506101fd611318565b34801561078057600080fd5b506101fd611327565b34801561079557600080fd5b50610373611336565b6073546001600160a01b031681565b606a6020526000908152604090205460ff1681565b60685460ff16610819576040805162461bcd60e51b815260206004820152601f60248201527f5265656e7472616e637947756172643a207265656e7472616e742063616c6c00604482015290519081900360640190fd5b6068805460ff1916905560695482111561087a576040805162461bcd60e51b815260206004820152601a60248201527f4665652065786365656473207472616e736665722076616c7565000000000000604482015290519081900360640190fd5b6000858152606a602052604090205460ff16156108de576040805162461bcd60e51b815260206004820152601f60248201527f546865206e6f746520686173206265656e20616c7265616479207370656e7400604482015290519081900360640190fd5b6108e786610e3d565b610938576040805162461bcd60e51b815260206004820152601c60248201527f43616e6e6f742066696e6420796f7572206d65726b6c6520726f6f7400000000604482015290519081900360640190fd5b606c546040805160c08082018352898252602082018990526001600160a01b038881168385015287811660608401526080830187905260a08301869052925163695ef6f960e01b8152929093169263695ef6f9928c928c9290916004810191829160240190849080838360005b838110156109bd5781810151838201526020016109a5565b505050509050018281038252858582818152602001925080828437600081840152601f19601f820116905080830192505050945050505050602060405180830381600087803b158015610a0f57600080fd5b505af1158015610a23573d6000803e3d6000fd5b505050506040513d6020811015610a3957600080fd5b5051610a85576040805162461bcd60e51b815260206004820152601660248201527524b73b30b634b2103bb4ba34323930bb90383937b7b360511b604482015290519081900360640190fd5b6000858152606a60205260409020805460ff19166001179055610aaa84848484611349565b604080516001600160a01b038681168252602082018890528183018590529151918516917fe9e508bad6d4c3227e881ca19068f099da81b5164dd6d62b2eaf1e8bc6c349319181900360600190a250506068805460ff19166001179055505050505050565b606c546001600160a01b031681565b60006000805160206123028339815191528310610b82576040805162461bcd60e51b815260206004820181905260248201527f5f6c6566742073686f756c6420626520696e7369646520746865206669656c64604482015290519081900360640190fd5b6000805160206123028339815191528210610bce5760405162461bcd60e51b81526004018080602001828103825260218152602001806122b26021913960400191505060405180910390fd5b6040805163f47d33b560e01b81526004810185905260006024820181905282518693919273__Hasher________________________________9263f47d33b592604480840193829003018186803b158015610c2857600080fd5b505af4158015610c3c573d6000803e3d6000fd5b505050506040513d6040811015610c5257600080fd5b5080516020909101519092509050600080516020612302833981519152848308915073__Hasher________________________________63f47d33b583836040518363ffffffff1660e01b81526004018083815260200182815260200192505050604080518083038186803b158015610cca57600080fd5b505af4158015610cde573d6000803e3d6000fd5b505050506040513d6040811015610cf457600080fd5b505195945050505050565b60008051602061230283398151915281565b60005463ffffffff1681565b604080516370a0823160e01b815230600482015290516000916001600160a01b038416916370a0823191602480820192602092909190829003018186803b158015610d6757600080fd5b505afa158015610d7b573d6000803e3d6000fd5b505050506040513d6020811015610d9157600080fd5b5051905080610d9f836113c3565b15610dbb57607154610db890839063ffffffff6113d716565b90505b60008111610e09576040805162461bcd60e51b815260206004820152601660248201527510d85b89dd0818db185a5b4818480c08185b5bdd5b9d60521b604482015290519081900360640190fd5b607054610e29906001600160a01b0385811691168363ffffffff61142016565b505050565b6070546001600160a01b031681565b600081610e4c57506000610eab565b60035463ffffffff165b60048163ffffffff1660648110610e6957fe5b0154831415610e7c576001915050610eab565b63ffffffff8116610e8b575060645b6003546000199091019063ffffffff80831691161415610e565760009150505b919050565b606b6020526000908152604090205460ff1681565b60695481565b606e546001600160a01b031681565b60035463ffffffff1681565b606e546001600160a01b03163314610f2f5760405162461bcd60e51b81526004018080602001828103825260228152602001806121e06022913960400191505060405180910390fd5b606c546040516001600160a01b038084169216907f0ddda8be1021ab00f63727c5c5504ad96b163269770a3fe8ac3dd0bcb40208df90600090a3606c80546001600160a01b0319166001600160a01b0392909216919091179055565b604080518281526020808402820101909152606090828015610fb7578160200160208202803883390190505b50905060005b8281101561100c57610fe0848483818110610fd457fe5b905060200201356112ae565b15611004576001828281518110610ff357fe5b911515602092830291909101909101525b600101610fbd565b5092915050565b6074546001600160a01b031681565b606e546001600160a01b0316331461106b5760405162461bcd60e51b81526004018080602001828103825260228152602001806121e06022913960400191505060405180910390fd5b606e546040516001600160a01b038084169216907f8be0079c531659141344cd1fd0a4f28419497f9722a3daafe3b4186f6b6457e090600090a3606e80546001600160a01b0319166001600160a01b0392909216919091179055565b60035460009060049063ffffffff16606481106110e057fe5b0154905090565b600481606481106110f457fe5b0154905081565b606481565b606d546001600160a01b031681565b610fa581565b60685460ff1661116c576040805162461bcd60e51b815260206004820152601f60248201527f5265656e7472616e637947756172643a207265656e7472616e742063616c6c00604482015290519081900360640190fd5b6068805460ff191690556000838152606b602052604090205460ff16156111c45760405162461bcd60e51b81526004018080602001828103825260218152602001806123226021913960400191505060405180910390fd5b60006111cf84611472565b6000858152606b60205260409020805460ff1916600117905590506111f2611609565b6040805163ffffffff83168152426020820152815186927fa945e51eec50ab98c161376f0db4cf2aeba3ec92755fe2fcd388bdbbb80ff196928290030190a2336001600160a01b03167ffa28df43db3553771f7209dcef046f3bdfea15870ab625dcda30ac58b82b4008848460405180806020018281038252848482818152602001925080828437600083820152604051601f909101601f19169092018290039550909350505050a250506068805460ff191660011790555050565b6000908152606a602052604090205460ff1690565b600281815481106112d057fe5b600091825260209091200154905081565b60715481565b7f2fe54c60d3acabf3343a35b6eba15db4821b340f76e741e2249685ed4899af6c81565b600181815481106112d057fe5b6072546001600160a01b031681565b606f546001600160a01b031681565b600354600160201b900463ffffffff1681565b6074546069546040805163db006a7560e01b81526004810192909252516001600160a01b039092169163db006a759160248082019260009290919082900301818387803b15801561139957600080fd5b505af11580156113ad573d6000803e3d6000fd5b505050506113bd848484846116af565b50505050565b6074546001600160a01b0390811691161490565b600061141983836040518060400160405280601e81526020017f536166654d6174683a207375627472616374696f6e206f766572666c6f7700008152506116d9565b9392505050565b604080516001600160a01b038416602482015260448082018490528251808303909101815260649091019091526020810180516001600160e01b031663a9059cbb60e01b179052610e29908490611770565b60035460008054909163ffffffff600160201b909104811691811660020a168114156114cf5760405162461bcd60e51b815260040180806020018281038252602f815260200180612202602f913960400191505060405180910390fd5b6003805463ffffffff600160201b80830482166001019091160267ffffffff000000001990911617905582600080805b60005463ffffffff90811690821610156115a757600185166115635783925060028163ffffffff168154811061153157fe5b906000526020600020015491508360018263ffffffff168154811061155257fe5b600091825260209091200155611587565b60018163ffffffff168154811061157657fe5b906000526020600020015492508391505b6115918383610b1e565b9350600263ffffffff86160494506001016114ff565b5060035460649063ffffffff908116600101166003805463ffffffff19169290910663ffffffff9081169290921790819055849160049116606481106115e957fe5b01555050600354600160201b900463ffffffff1660001901949350505050565b611611611928565b607254606954606f54611638926001600160a01b039182169291169063ffffffff61194a16565b607354606f5460695460408051636968703360e11b81526001600160a01b0393841660048201526024810192909252610fa5604483015251919092169163d2d0e06691606480830192600092919082900301818387803b15801561169b57600080fd5b505af11580156113bd573d6000803e3d6000fd5b6116bb84848484611a5d565b6069546071546116d09163ffffffff6113d716565b60715550505050565b600081848411156117685760405162461bcd60e51b81526004018080602001828103825283818151815260200191508051906020019080838360005b8381101561172d578181015183820152602001611715565b50505050905090810190601f16801561175a5780820380516001836020036101000a031916815260200191505b509250505060405180910390fd5b505050900390565b611782826001600160a01b0316611ca5565b6117d3576040805162461bcd60e51b815260206004820152601f60248201527f5361666545524332303a2063616c6c20746f206e6f6e2d636f6e747261637400604482015290519081900360640190fd5b60006060836001600160a01b0316836040518082805190602001908083835b602083106118115780518252601f1990920191602091820191016117f2565b6001836020036101000a0380198251168184511680821785525050505050509050019150506000604051808303816000865af19150503d8060008114611873576040519150601f19603f3d011682016040523d82523d6000602084013e611878565b606091505b5091509150816118cf576040805162461bcd60e51b815260206004820181905260248201527f5361666545524332303a206c6f772d6c6576656c2063616c6c206661696c6564604482015290519081900360640190fd5b8051156113bd578080602001905160208110156118eb57600080fd5b50516113bd5760405162461bcd60e51b815260040180806020018281038252602a815260200180612373602a913960400191505060405180910390fd5b611930611ce1565b6069546071546119459163ffffffff611d2d16565b607155565b8015806119d0575060408051636eb1769f60e11b81523060048201526001600160a01b03848116602483015291519185169163dd62ed3e91604480820192602092909190829003018186803b1580156119a257600080fd5b505afa1580156119b6573d6000803e3d6000fd5b505050506040513d60208110156119cc57600080fd5b5051155b611a0b5760405162461bcd60e51b815260040180806020018281038252603681526020018061239d6036913960400191505060405180910390fd5b604080516001600160a01b038416602482015260448082018490528251808303909101815260649091019091526020810180516001600160e01b031663095ea7b360e01b179052610e29908490611770565b803414611a9b5760405162461bcd60e51b815260040180806020018281038252603081526020018061225b6030913960400191505060405180910390fd5b606d5460408051622fcfcb60e31b815290516000926001600160a01b03169163017e7e58916004808301926020929190829003018186803b158015611adf57600080fd5b505afa158015611af3573d6000803e3d6000fd5b505050506040513d6020811015611b0957600080fd5b5051606d5460408051633b46a6e760e01b815290519293506000926001600160a01b0390921691633b46a6e791600480820192602092909190829003018186803b158015611b5657600080fd5b505afa158015611b6a573d6000803e3d6000fd5b505050506040513d6020811015611b8057600080fd5b5051905060006001600160a01b03831615801590611b9d57508115155b90508015611be3576000611bb360695484611d87565b9050611bd388611bce606954611bc98a86611d2d565b6113d7565b611dc9565b611bdd8482611dc9565b50611bf3565b611bf387611bce606954886113d7565b8415611c0357611c038686611dc9565b8315611c9c576040516000906001600160a01b0389169086908381818185875af1925050503d8060008114611c54576040519150601f19603f3d011682016040523d82523d6000602084013e611c59565b606091505b5050905080611c9a576040516001600160a01b0388169086156108fc029087906000818181858888f19350505050158015611c98573d6000803e3d6000fd5b505b505b50505050505050565b6000813f7fc5d2460186f7233c927e7db2dcc703c0e500b653ca82273b7bfad8045d85a470818114801590611cd957508115155b949350505050565b3415611d1e5760405162461bcd60e51b81526004018080602001828103825260308152602001806123436030913960400191505060405180910390fd5b611d2b3330606954611f94565b565b600082820183811015611419576040805162461bcd60e51b815260206004820152601b60248201527f536166654d6174683a206164646974696f6e206f766572666c6f770000000000604482015290519081900360640190fd5b600061141983836040518060400160405280601a81526020017f536166654d6174683a206469766973696f6e206279207a65726f00000000000081525061217a565b606f54604080516001600160a01b038581166024830152604480830186905283518084039091018152606490920183526020820180516001600160e01b031663a9059cbb60e01b178152925182516000956060959316939282918083835b60208310611e465780518252601f199092019160209182019101611e27565b6001836020036101000a0380198251168184511680821785525050505050509050019150506000604051808303816000865af19150503d8060008114611ea8576040519150601f19603f3d011682016040523d82523d6000602084013e611ead565b606091505b509150915081611ef8576040805162461bcd60e51b81526020600482015260116024820152706e6f7420656e6f75676820746f6b656e7360781b604482015290519081900360640190fd5b8051156113bd578051602014611f3f5760405162461bcd60e51b815260040180806020018281038252602a815260200180612231602a913960400191505060405180910390fd5b808060200190516020811015611f5457600080fd5b50519150816113bd5760405162461bcd60e51b815260040180806020018281038252602781526020018061228b6027913960400191505060405180910390fd5b606f54604080516001600160a01b0386811660248301528581166044830152606480830186905283518084039091018152608490920183526020820180516001600160e01b03166323b872dd60e01b178152925182516000956060959316939282918083835b602083106120195780518252601f199092019160209182019101611ffa565b6001836020036101000a0380198251168184511680821785525050505050509050019150506000604051808303816000865af19150503d806000811461207b576040519150601f19603f3d011682016040523d82523d6000602084013e612080565b606091505b5091509150816120d7576040805162461bcd60e51b815260206004820152601960248201527f6e6f7420656e6f75676820616c6c6f77656420746f6b656e7300000000000000604482015290519081900360640190fd5b80511561217357805160201461211e5760405162461bcd60e51b815260040180806020018281038252602a815260200180612231602a913960400191505060405180910390fd5b80806020019051602081101561213357600080fd5b50519150816121735760405162461bcd60e51b815260040180806020018281038252602f8152602001806122d3602f913960400191505060405180910390fd5b5050505050565b600081836121c95760405162461bcd60e51b815260206004820181815283516024840152835190928392604490910191908501908083836000831561172d578181015183820152602001611715565b5060008385816121d557fe5b049594505050505056fe4f6e6c79206f776e65722063616e2063616c6c20746869732066756e6374696f6e2e4d65726b6c6520747265652069732066756c6c2e204e6f206d6f7265206c656166732063616e20626520616464656464617461206c656e6774682073686f756c64206265206569746865722030206f72203332206279746573496e636f727265637420726566756e6420616d6f756e742072656365697665642062792074686520636f6e74726163746e6f7420656e6f75676820746f6b656e732e20546f6b656e2072657475726e732066616c73652e5f72696768742073686f756c6420626520696e7369646520746865206669656c646e6f7420656e6f75676820616c6c6f77656420746f6b656e732e20546f6b656e2072657475726e732066616c73652e30644e72e131a029b85045b68181585d2833e84879b9709143e1f593f000000154686520636f6d6d69746d656e7420686173206265656e207375626d69747465644554482076616c756520697320737570706f73656420746f206265203020666f7220455243323020696e7374616e63655361666545524332303a204552433230206f7065726174696f6e20646964206e6f7420737563636565645361666545524332303a20617070726f76652066726f6d206e6f6e2d7a65726f20746f206e6f6e2d7a65726f20616c6c6f77616e6365a265627a7a7231582063429a9822238a65ebfd249ef07994ca53e27a5132a640978e16e8a14e7094eb64736f6c6343000511003264656e6f6d696e6174696f6e2073686f756c642062652067726561746572207468616e2030405787fa12a823e0f2b7631cc41b3ba8828b3321ca811111fa75cd3aa3bb5ace5f72696768742073686f756c6420626520696e7369646520746865206669656c645f747265654c6576656c732073686f756c642062652067726561746572207468616e207a65726f30644e72e131a029b85045b68181585d2833e84879b9709143e1f593f00000015f747265654c6576656c732073686f756c64206265206c657373207468616e203332b10e2d527612073b26eecdfd717e6a320cf44b4afac2b0732d9fcbe2b7fa0cf6",
  "source": "pragma solidity 0.5.17;\n\nimport \"./ERC20Morphose.sol\";\nimport \"./interfaces/IMoola.sol\";\nimport \"@openzeppelin/contracts/math/SafeMath.sol\";\nimport \"@openzeppelin/contracts/token/ERC20/IERC20.sol\";\nimport \"@openzeppelin/contracts/token/ERC20/SafeERC20.sol\";\n\n/*\nERC20MMorphose is a Morphose pool that does automatic conversion for Moola mTokens\n*/\ncontract ERC20MMorphose is ERC20Morphose {\n  using SafeERC20 for IERC20;\n  using SafeMath for uint256;\n\n  uint16 public constant MOOLA_REFERRAL_CODE = 4005;\n\n  ILendingPoolCore public core;\n  ILendingPool public pool;\n  IAToken public aToken;\n\n  constructor(\n    IVerifier _verifier,\n    IFeeManager _feeManager,\n    uint256 _denomination,\n    uint32 _merkleTreeHeight,\n    address _owner,\n    address _token,\n    address _governance,\n    ILendingPoolCore _core,\n    ILendingPool _pool\n  ) ERC20Morphose(_verifier, _feeManager, _denomination, _merkleTreeHeight, _owner, _token, _governance) public {\n    core = _core;\n    pool = _pool;\n    aToken = IAToken(core.getReserveATokenAddress(token));\n  }\n\n  function _processDeposit() internal {\n    super._processDeposit();\n\n    // Convert to Moola tokens\n    IERC20(token).safeApprove(address(core), denomination);\n    pool.deposit(token, denomination, MOOLA_REFERRAL_CODE);\n  }\n\n  function _processWithdraw(address payable _recipient, address payable _relayer, uint256 _relayer_fee, uint256 _refund) internal {\n    // Convert from Moola tokens\n    aToken.redeem(denomination);\n    super._processWithdraw(\n      _recipient,\n      _relayer,\n      _relayer_fee,\n      _refund\n    );\n  }\n  \n  function _isPoolToken(address _token) internal returns (bool) {\n    return _token == address(aToken);\n  }\n}\n",
  "sourcePath": "/Users/gautam/Documents/poof-core/contracts/ERC20MMorphose.sol",
  "compiler": {
    "name": "solc",
    "version": "0.5.17+commit.d19bba13.Emscripten.clang"
  },
  "schemaVersion": "3.2.3",
  "updatedAt": "2021-11-21T05:39:00.548Z",
  "devdoc": {
    "methods": {
      "changeOwner(address)": {
        "details": "owner can change his address "
      },
      "deposit(bytes32,bytes)": {
        "details": "Deposit funds into the contract. The caller must send (for ETH) or approve (for ERC20) value equal to or `denomination` of this instance.",
        "params": {
          "_commitment": "the note commitment, which is PedersenHash(nullifier + secret)"
        }
      },
      "getLastRoot()": {
        "details": "Returns the last root"
      },
      "hashLeftRight(bytes32,bytes32)": {
        "details": "Hash 2 tree leaves, returns MiMC(_left, _right)"
      },
      "isKnownRoot(bytes32)": {
        "details": "Whether the root is present in the root history"
      },
      "isSpent(bytes32)": {
        "details": "whether a note is already spent "
      },
      "isSpentArray(bytes32[])": {
        "details": "whether an array of notes is already spent "
      },
      "updateVerifier(address)": {
        "details": "allow owner to update SNARK verification keys. This is needed to update keys after the final trusted setup ceremony is held. After that owner rights are supposed to be transferred to zero address"
      },
      "withdraw(bytes,bytes32,bytes32,address,address,uint256,uint256)": {
        "details": "Withdraw a deposit from the contract. `proof` is a zkSNARK proof data, and input is an array of circuit public inputs `input` array consists of: - merkle root of all deposits in the contract - hash of unique deposit nullifier to prevent double spends - the recipient of funds - optional fee that goes to the transaction sender (usually a relay)"
      }
    }
  },
  "userdoc": {
    "methods": {}
  }
}