{
  "contractName": "ERC20Morphose",
  "abi": [
    {
      "inputs": [
        {
          "internalType": "contract IVerifier",
          "name": "_verifier",
          "type": "address"
        },
        {
          "internalType": "contract IFeeManager",
          "name": "_feeManager",
          "type": "address"
        },
        {
          "internalType": "uint256",
          "name": "_denomination",
          "type": "uint256"
        },
        {
          "internalType": "uint32",
          "name": "_merkleTreeHeight",
          "type": "uint32"
        },
        {
          "internalType": "address",
          "name": "_owner",
          "type": "address"
        },
        {
          "internalType": "address",
          "name": "_token",
          "type": "address"
        },
        {
          "internalType": "address",
          "name": "_governance",
          "type": "address"
        }
      ],
      "payable": false,
      "stateMutability": "nonpayable",
      "type": "constructor"
    },
    {
      "anonymous": false,
      "inputs": [
        {
          "indexed": true,
          "internalType": "bytes32",
          "name": "commitment",
          "type": "bytes32"
        },
        {
          "indexed": false,
          "internalType": "uint32",
          "name": "leafIndex",
          "type": "uint32"
        },
        {
          "indexed": false,
          "internalType": "uint256",
          "name": "timestamp",
          "type": "uint256"
        }
      ],
      "name": "Deposit",
      "type": "event"
    },
    {
      "anonymous": false,
      "inputs": [
        {
          "indexed": true,
          "internalType": "address",
          "name": "sender",
          "type": "address"
        },
        {
          "indexed": false,
          "internalType": "bytes",
          "name": "encryptedNote",
          "type": "bytes"
        }
      ],
      "name": "EncryptedNote",
      "type": "event"
    },
    {
      "anonymous": false,
      "inputs": [
        {
          "indexed": true,
          "internalType": "address",
          "name": "previousOwner",
          "type": "address"
        },
        {
          "indexed": true,
          "internalType": "address",
          "name": "newOwner",
          "type": "address"
        }
      ],
      "name": "OwnershipTransferred",
      "type": "event"
    },
    {
      "anonymous": false,
      "inputs": [
        {
          "indexed": true,
          "internalType": "address",
          "name": "previousVerifier",
          "type": "address"
        },
        {
          "indexed": true,
          "internalType": "address",
          "name": "newVerifier",
          "type": "address"
        }
      ],
      "name": "VerifierChanged",
      "type": "event"
    },
    {
      "anonymous": false,
      "inputs": [
        {
          "indexed": false,
          "internalType": "address",
          "name": "to",
          "type": "address"
        },
        {
          "indexed": false,
          "internalType": "bytes32",
          "name": "nullifierHash",
          "type": "bytes32"
        },
        {
          "indexed": true,
          "internalType": "address",
          "name": "relayer",
          "type": "address"
        },
        {
          "indexed": false,
          "internalType": "uint256",
          "name": "fee",
          "type": "uint256"
        }
      ],
      "name": "Withdrawal",
      "type": "event"
    },
    {
      "constant": true,
      "inputs": [],
      "name": "FIELD_SIZE",
      "outputs": [
        {
          "internalType": "uint256",
          "name": "",
          "type": "uint256"
        }
      ],
      "payable": false,
      "stateMutability": "view",
      "type": "function"
    },
    {
      "constant": true,
      "inputs": [],
      "name": "ROOT_HISTORY_SIZE",
      "outputs": [
        {
          "internalType": "uint32",
          "name": "",
          "type": "uint32"
        }
      ],
      "payable": false,
      "stateMutability": "view",
      "type": "function"
    },
    {
      "constant": true,
      "inputs": [],
      "name": "ZERO_VALUE",
      "outputs": [
        {
          "internalType": "uint256",
          "name": "",
          "type": "uint256"
        }
      ],
      "payable": false,
      "stateMutability": "view",
      "type": "function"
    },
    {
      "constant": false,
      "inputs": [
        {
          "internalType": "address",
          "name": "_newOwner",
          "type": "address"
        }
      ],
      "name": "changeOwner",
      "outputs": [],
      "payable": false,
      "stateMutability": "nonpayable",
      "type": "function"
    },
    {
      "constant": true,
      "inputs": [
        {
          "internalType": "bytes32",
          "name": "",
          "type": "bytes32"
        }
      ],
      "name": "commitments",
      "outputs": [
        {
          "internalType": "bool",
          "name": "",
          "type": "bool"
        }
      ],
      "payable": false,
      "stateMutability": "view",
      "type": "function"
    },
    {
      "constant": true,
      "inputs": [],
      "name": "currentRootIndex",
      "outputs": [
        {
          "internalType": "uint32",
          "name": "",
          "type": "uint32"
        }
      ],
      "payable": false,
      "stateMutability": "view",
      "type": "function"
    },
    {
      "constant": true,
      "inputs": [],
      "name": "denomination",
      "outputs": [
        {
          "internalType": "uint256",
          "name": "",
          "type": "uint256"
        }
      ],
      "payable": false,
      "stateMutability": "view",
      "type": "function"
    },
    {
      "constant": false,
      "inputs": [
        {
          "internalType": "bytes32",
          "name": "_commitment",
          "type": "bytes32"
        },
        {
          "internalType": "bytes",
          "name": "_encryptedNote",
          "type": "bytes"
        }
      ],
      "name": "deposit",
      "outputs": [],
      "payable": true,
      "stateMutability": "payable",
      "type": "function"
    },
    {
      "constant": true,
      "inputs": [],
      "name": "feeManager",
      "outputs": [
        {
          "internalType": "contract IFeeManager",
          "name": "",
          "type": "address"
        }
      ],
      "payable": false,
      "stateMutability": "view",
      "type": "function"
    },
    {
      "constant": true,
      "inputs": [
        {
          "internalType": "uint256",
          "name": "",
          "type": "uint256"
        }
      ],
      "name": "filledSubtrees",
      "outputs": [
        {
          "internalType": "bytes32",
          "name": "",
          "type": "bytes32"
        }
      ],
      "payable": false,
      "stateMutability": "view",
      "type": "function"
    },
    {
      "constant": true,
      "inputs": [],
      "name": "getLastRoot",
      "outputs": [
        {
          "internalType": "bytes32",
          "name": "",
          "type": "bytes32"
        }
      ],
      "payable": false,
      "stateMutability": "view",
      "type": "function"
    },
    {
      "constant": true,
      "inputs": [],
      "name": "governance",
      "outputs": [
        {
          "internalType": "address",
          "name": "",
          "type": "address"
        }
      ],
      "payable": false,
      "stateMutability": "view",
      "type": "function"
    },
    {
      "constant": true,
      "inputs": [
        {
          "internalType": "bytes32",
          "name": "_left",
          "type": "bytes32"
        },
        {
          "internalType": "bytes32",
          "name": "_right",
          "type": "bytes32"
        }
      ],
      "name": "hashLeftRight",
      "outputs": [
        {
          "internalType": "bytes32",
          "name": "",
          "type": "bytes32"
        }
      ],
      "payable": false,
      "stateMutability": "pure",
      "type": "function"
    },
    {
      "constant": true,
      "inputs": [
        {
          "internalType": "bytes32",
          "name": "_root",
          "type": "bytes32"
        }
      ],
      "name": "isKnownRoot",
      "outputs": [
        {
          "internalType": "bool",
          "name": "",
          "type": "bool"
        }
      ],
      "payable": false,
      "stateMutability": "view",
      "type": "function"
    },
    {
      "constant": true,
      "inputs": [
        {
          "internalType": "bytes32",
          "name": "_nullifierHash",
          "type": "bytes32"
        }
      ],
      "name": "isSpent",
      "outputs": [
        {
          "internalType": "bool",
          "name": "",
          "type": "bool"
        }
      ],
      "payable": false,
      "stateMutability": "view",
      "type": "function"
    },
    {
      "constant": true,
      "inputs": [
        {
          "internalType": "bytes32[]",
          "name": "_nullifierHashes",
          "type": "bytes32[]"
        }
      ],
      "name": "isSpentArray",
      "outputs": [
        {
          "internalType": "bool[]",
          "name": "spent",
          "type": "bool[]"
        }
      ],
      "payable": false,
      "stateMutability": "view",
      "type": "function"
    },
    {
      "constant": true,
      "inputs": [],
      "name": "levels",
      "outputs": [
        {
          "internalType": "uint32",
          "name": "",
          "type": "uint32"
        }
      ],
      "payable": false,
      "stateMutability": "view",
      "type": "function"
    },
    {
      "constant": true,
      "inputs": [],
      "name": "nextIndex",
      "outputs": [
        {
          "internalType": "uint32",
          "name": "",
          "type": "uint32"
        }
      ],
      "payable": false,
      "stateMutability": "view",
      "type": "function"
    },
    {
      "constant": true,
      "inputs": [
        {
          "internalType": "bytes32",
          "name": "",
          "type": "bytes32"
        }
      ],
      "name": "nullifierHashes",
      "outputs": [
        {
          "internalType": "bool",
          "name": "",
          "type": "bool"
        }
      ],
      "payable": false,
      "stateMutability": "view",
      "type": "function"
    },
    {
      "constant": true,
      "inputs": [],
      "name": "owner",
      "outputs": [
        {
          "internalType": "address",
          "name": "",
          "type": "address"
        }
      ],
      "payable": false,
      "stateMutability": "view",
      "type": "function"
    },
    {
      "constant": true,
      "inputs": [
        {
          "internalType": "uint256",
          "name": "",
          "type": "uint256"
        }
      ],
      "name": "roots",
      "outputs": [
        {
          "internalType": "bytes32",
          "name": "",
          "type": "bytes32"
        }
      ],
      "payable": false,
      "stateMutability": "view",
      "type": "function"
    },
    {
      "constant": true,
      "inputs": [],
      "name": "token",
      "outputs": [
        {
          "internalType": "address",
          "name": "",
          "type": "address"
        }
      ],
      "payable": false,
      "stateMutability": "view",
      "type": "function"
    },
    {
      "constant": true,
      "inputs": [],
      "name": "totalDepositBalance",
      "outputs": [
        {
          "internalType": "uint256",
          "name": "",
          "type": "uint256"
        }
      ],
      "payable": false,
      "stateMutability": "view",
      "type": "function"
    },
    {
      "constant": false,
      "inputs": [
        {
          "internalType": "address",
          "name": "_newVerifier",
          "type": "address"
        }
      ],
      "name": "updateVerifier",
      "outputs": [],
      "payable": false,
      "stateMutability": "nonpayable",
      "type": "function"
    },
    {
      "constant": true,
      "inputs": [],
      "name": "verifier",
      "outputs": [
        {
          "internalType": "contract IVerifier",
          "name": "",
          "type": "address"
        }
      ],
      "payable": false,
      "stateMutability": "view",
      "type": "function"
    },
    {
      "constant": false,
      "inputs": [
        {
          "internalType": "bytes",
          "name": "_proof",
          "type": "bytes"
        },
        {
          "internalType": "bytes32",
          "name": "_root",
          "type": "bytes32"
        },
        {
          "internalType": "bytes32",
          "name": "_nullifierHash",
          "type": "bytes32"
        },
        {
          "internalType": "address payable",
          "name": "_recipient",
          "type": "address"
        },
        {
          "internalType": "address payable",
          "name": "_relayer",
          "type": "address"
        },
        {
          "internalType": "uint256",
          "name": "_fee",
          "type": "uint256"
        },
        {
          "internalType": "uint256",
          "name": "_refund",
          "type": "uint256"
        }
      ],
      "name": "withdraw",
      "outputs": [],
      "payable": true,
      "stateMutability": "payable",
      "type": "function"
    },
    {
      "constant": true,
      "inputs": [
        {
          "internalType": "uint256",
          "name": "",
          "type": "uint256"
        }
      ],
      "name": "zeros",
      "outputs": [
        {
          "internalType": "bytes32",
          "name": "",
          "type": "bytes32"
        }
      ],
      "payable": false,
      "stateMutability": "view",
      "type": "function"
    },
    {
      "constant": false,
      "inputs": [
        {
          "internalType": "contract IERC20",
          "name": "_token",
          "type": "address"
        }
      ],
      "name": "governanceClaim",
      "outputs": [],
      "payable": false,
      "stateMutability": "nonpayable",
      "type": "function"
    }
  ],
  "bytecode": "0x6080604052600380546001600160401b03191690553480156200002157600080fd5b506040516200269c3803806200269c833981810160405260e08110156200004757600080fd5b508051602082015160408301516060840151608085015160a086015160c090960151949593949293919290919086868686868685858585858163ffffffff8116620000c45760405162461bcd60e51b8152600401808060200182810382526027815260200180620026136027913960400191505060405180910390fd5b60208163ffffffff16106200010b5760405162461bcd60e51b81526004018080602001828103825260228152602001806200265a6022913960400191505060405180910390fd5b6000805463ffffffff191663ffffffff83161781556002805460018181019092557f2fe54c60d3acabf3343a35b6eba15db4821b340f76e741e2249685ed4899af6c600080516020620025d283398151915290910181905581548083018355928290526000805160206200267c8339815191529092018290555b60005463ffffffff9081169082161015620001f957620001af82806001600160e01b03620002d616565b600280546001818101909255600080516020620025d2833981519152018290558054808201825560008290526000805160206200267c833981519152018290559092500162000185565b506200020f81806001600160e01b03620002d616565b60046000015550506068805460ff1916600117905582620002625760405162461bcd60e51b8152600401808060200182810382526025815260200180620025ad6025913960400191505060405180910390fd5b606c80546001600160a01b03199081166001600160a01b0397881617909155606d8054821695871695909517909455606e8054851691861691909117905550606955606f80548216938316939093179092556070805490921697169690961790955550620004c39950505050505050505050565b60006000805160206200263a83398151915283106200033c576040805162461bcd60e51b815260206004820181905260248201527f5f6c6566742073686f756c6420626520696e7369646520746865206669656c64604482015290519081900360640190fd5b6000805160206200263a83398151915282106200038b5760405162461bcd60e51b8152600401808060200182810382526021815260200180620025f26021913960400191505060405180910390fd5b6040805163f47d33b560e01b81526004810185905260006024820181905282518693919273__Hasher________________________________9263f47d33b592604480840193829003018186803b158015620003e657600080fd5b505af4158015620003fb573d6000803e3d6000fd5b505050506040513d60408110156200041257600080fd5b50805160209091015190925090506000805160206200263a833981519152848308915073__Hasher________________________________63f47d33b583836040518363ffffffff1660e01b81526004018083815260200182815260200192505050604080518083038186803b1580156200048c57600080fd5b505af4158015620004a1573d6000803e3d6000fd5b505050506040513d6040811015620004b857600080fd5b505195945050505050565b6120da80620004d36000396000f3fe6080604052600436106101b75760003560e01c80639fa12d0b116100ec578063e5285dcc1161008a578063ec73295911610064578063ec7329591461069e578063f178e47c146106b3578063fc0c546a146106dd578063fc7e9c6f146106f2576101b7565b8063e5285dcc14610635578063e82955881461065f578063e8c0a0df14610689576101b7565b8063c2b40ae4116100c6578063c2b40ae41461056c578063cd87a3b414610596578063d0fb0203146105ab578063e29973fc146105c0576101b7565b80639fa12d0b14610459578063a6f9dae114610524578063ba70f75714610557576101b7565b80635aa6e675116101595780638bca6d16116101335780638bca6d16146103e75780638da5cb5b146103fc57806390eeb02b1461041157806397fc007c14610426576101b7565b80635aa6e6751461037e5780636d9833e314610393578063839df945146103bd576101b7565b806338bf282e1161019557806338bf282e146102c6578063414a37ba146103085780634ecf518b1461031d578063560cdfbd1461034b576101b7565b806317cc915c146101bc57806321a0adb6146101fa5780632b7ac3f314610295575b600080fd5b3480156101c857600080fd5b506101e6600480360360208110156101df57600080fd5b5035610707565b604080519115158252519081900360200190f35b610293600480360360e081101561021057600080fd5b810190602081018135600160201b81111561022a57600080fd5b82018360208201111561023c57600080fd5b803590602001918460018302840111600160201b8311171561025d57600080fd5b91935091508035906020810135906001600160a01b03604082013581169160608101359091169060808101359060a0013561071c565b005b3480156102a157600080fd5b506102aa610a69565b604080516001600160a01b039092168252519081900360200190f35b3480156102d257600080fd5b506102f6600480360360408110156102e957600080fd5b5080359060200135610a78565b60408051918252519081900360200190f35b34801561031457600080fd5b506102f6610c59565b34801561032957600080fd5b50610332610c6b565b6040805163ffffffff9092168252519081900360200190f35b34801561035757600080fd5b506102936004803603602081101561036e57600080fd5b50356001600160a01b0316610c77565b34801561038a57600080fd5b506102aa610d88565b34801561039f57600080fd5b506101e6600480360360208110156103b657600080fd5b5035610d97565b3480156103c957600080fd5b506101e6600480360360208110156103e057600080fd5b5035610e0a565b3480156103f357600080fd5b506102f6610e1f565b34801561040857600080fd5b506102aa610e25565b34801561041d57600080fd5b50610332610e34565b34801561043257600080fd5b506102936004803603602081101561044957600080fd5b50356001600160a01b0316610e40565b34801561046557600080fd5b506104d46004803603602081101561047c57600080fd5b810190602081018135600160201b81111561049657600080fd5b8201836020820111156104a857600080fd5b803590602001918460208302840111600160201b831117156104c957600080fd5b509092509050610ee5565b60408051602080825283518183015283519192839290830191858101910280838360005b838110156105105781810151838201526020016104f8565b505050509050019250505060405180910390f35b34801561053057600080fd5b506102936004803603602081101561054757600080fd5b50356001600160a01b0316610f6d565b34801561056357600080fd5b506102f6611012565b34801561057857600080fd5b506102f66004803603602081101561058f57600080fd5b5035611032565b3480156105a257600080fd5b50610332611046565b3480156105b757600080fd5b506102aa61104b565b610293600480360360408110156105d657600080fd5b81359190810190604081016020820135600160201b8111156105f757600080fd5b82018360208201111561060957600080fd5b803590602001918460018302840111600160201b8311171561062a57600080fd5b50909250905061105a565b34801561064157600080fd5b506101e66004803603602081101561065857600080fd5b50356111f3565b34801561066b57600080fd5b506102f66004803603602081101561068257600080fd5b5035611208565b34801561069557600080fd5b506102f6611226565b3480156106aa57600080fd5b506102f661122c565b3480156106bf57600080fd5b506102f6600480360360208110156106d657600080fd5b5035611250565b3480156106e957600080fd5b506102aa61125d565b3480156106fe57600080fd5b5061033261126c565b606a6020526000908152604090205460ff1681565b60685460ff16610773576040805162461bcd60e51b815260206004820152601f60248201527f5265656e7472616e637947756172643a207265656e7472616e742063616c6c00604482015290519081900360640190fd5b6068805460ff191690556069548211156107d4576040805162461bcd60e51b815260206004820152601a60248201527f4665652065786365656473207472616e736665722076616c7565000000000000604482015290519081900360640190fd5b6000858152606a602052604090205460ff1615610838576040805162461bcd60e51b815260206004820152601f60248201527f546865206e6f746520686173206265656e20616c7265616479207370656e7400604482015290519081900360640190fd5b61084186610d97565b610892576040805162461bcd60e51b815260206004820152601c60248201527f43616e6e6f742066696e6420796f7572206d65726b6c6520726f6f7400000000604482015290519081900360640190fd5b606c546040805160c08082018352898252602082018990526001600160a01b038881168385015287811660608401526080830187905260a08301869052925163695ef6f960e01b8152929093169263695ef6f9928c928c9290916004810191829160240190849080838360005b838110156109175781810151838201526020016108ff565b505050509050018281038252858582818152602001925080828437600081840152601f19601f820116905080830192505050945050505050602060405180830381600087803b15801561096957600080fd5b505af115801561097d573d6000803e3d6000fd5b505050506040513d602081101561099357600080fd5b50516109df576040805162461bcd60e51b815260206004820152601660248201527524b73b30b634b2103bb4ba34323930bb90383937b7b360511b604482015290519081900360640190fd5b6000858152606a60205260409020805460ff19166001179055610a048484848461127f565b604080516001600160a01b038681168252602082018890528183018590529151918516917fe9e508bad6d4c3227e881ca19068f099da81b5164dd6d62b2eaf1e8bc6c349319181900360600190a250506068805460ff19166001179055505050505050565b606c546001600160a01b031681565b600060008051602061200b8339815191528310610adc576040805162461bcd60e51b815260206004820181905260248201527f5f6c6566742073686f756c6420626520696e7369646520746865206669656c64604482015290519081900360640190fd5b60008051602061200b8339815191528210610b285760405162461bcd60e51b8152600401808060200182810382526021815260200180611fbb6021913960400191505060405180910390fd5b6040805163f47d33b560e01b81526004810185905260006024820181905282518693919273__Hasher________________________________9263f47d33b592604480840193829003018186803b158015610b8257600080fd5b505af4158015610b96573d6000803e3d6000fd5b505050506040513d6040811015610bac57600080fd5b508051602090910151909250905060008051602061200b833981519152848308915073__Hasher________________________________63f47d33b583836040518363ffffffff1660e01b81526004018083815260200182815260200192505050604080518083038186803b158015610c2457600080fd5b505af4158015610c38573d6000803e3d6000fd5b505050506040513d6040811015610c4e57600080fd5b505195945050505050565b60008051602061200b83398151915281565b60005463ffffffff1681565b604080516370a0823160e01b815230600482015290516000916001600160a01b038416916370a0823191602480820192602092909190829003018186803b158015610cc157600080fd5b505afa158015610cd5573d6000803e3d6000fd5b505050506040513d6020811015610ceb57600080fd5b5051905080610cf9836112a9565b15610d1557607154610d1290839063ffffffff6112bd16565b90505b60008111610d63576040805162461bcd60e51b815260206004820152601660248201527510d85b89dd0818db185a5b4818480c08185b5bdd5b9d60521b604482015290519081900360640190fd5b607054610d83906001600160a01b0385811691168363ffffffff61130616565b505050565b6070546001600160a01b031681565b600081610da657506000610e05565b60035463ffffffff165b60048163ffffffff1660648110610dc357fe5b0154831415610dd6576001915050610e05565b63ffffffff8116610de5575060645b6003546000199091019063ffffffff80831691161415610db05760009150505b919050565b606b6020526000908152604090205460ff1681565b60695481565b606e546001600160a01b031681565b60035463ffffffff1681565b606e546001600160a01b03163314610e895760405162461bcd60e51b8152600401808060200182810382526022815260200180611ee96022913960400191505060405180910390fd5b606c546040516001600160a01b038084169216907f0ddda8be1021ab00f63727c5c5504ad96b163269770a3fe8ac3dd0bcb40208df90600090a3606c80546001600160a01b0319166001600160a01b0392909216919091179055565b604080518281526020808402820101909152606090828015610f11578160200160208202803883390190505b50905060005b82811015610f6657610f3a848483818110610f2e57fe5b905060200201356111f3565b15610f5e576001828281518110610f4d57fe5b911515602092830291909101909101525b600101610f17565b5092915050565b606e546001600160a01b03163314610fb65760405162461bcd60e51b8152600401808060200182810382526022815260200180611ee96022913960400191505060405180910390fd5b606e546040516001600160a01b038084169216907f8be0079c531659141344cd1fd0a4f28419497f9722a3daafe3b4186f6b6457e090600090a3606e80546001600160a01b0319166001600160a01b0392909216919091179055565b60035460009060049063ffffffff166064811061102b57fe5b0154905090565b6004816064811061103f57fe5b0154905081565b606481565b606d546001600160a01b031681565b60685460ff166110b1576040805162461bcd60e51b815260206004820152601f60248201527f5265656e7472616e637947756172643a207265656e7472616e742063616c6c00604482015290519081900360640190fd5b6068805460ff191690556000838152606b602052604090205460ff16156111095760405162461bcd60e51b815260040180806020018281038252602181526020018061202b6021913960400191505060405180910390fd5b600061111484611358565b6000858152606b60205260409020805460ff1916600117905590506111376114ef565b6040805163ffffffff83168152426020820152815186927fa945e51eec50ab98c161376f0db4cf2aeba3ec92755fe2fcd388bdbbb80ff196928290030190a2336001600160a01b03167ffa28df43db3553771f7209dcef046f3bdfea15870ab625dcda30ac58b82b4008848460405180806020018281038252848482818152602001925080828437600083820152604051601f909101601f19169092018290039550909350505050a250506068805460ff191660011790555050565b6000908152606a602052604090205460ff1690565b6002818154811061121557fe5b600091825260209091200154905081565b60715481565b7f2fe54c60d3acabf3343a35b6eba15db4821b340f76e741e2249685ed4899af6c81565b6001818154811061121557fe5b606f546001600160a01b031681565b600354600160201b900463ffffffff1681565b61128b84848484611511565b6069546071546112a09163ffffffff6112bd16565b60715550505050565b606f546001600160a01b0390811691161490565b60006112ff83836040518060400160405280601e81526020017f536166654d6174683a207375627472616374696f6e206f766572666c6f770000815250611759565b9392505050565b604080516001600160a01b038416602482015260448082018490528251808303909101815260649091019091526020810180516001600160e01b031663a9059cbb60e01b179052610d839084906117f0565b60035460008054909163ffffffff600160201b909104811691811660020a168114156113b55760405162461bcd60e51b815260040180806020018281038252602f815260200180611f0b602f913960400191505060405180910390fd5b6003805463ffffffff600160201b80830482166001019091160267ffffffff000000001990911617905582600080805b60005463ffffffff908116908216101561148d57600185166114495783925060028163ffffffff168154811061141757fe5b906000526020600020015491508360018263ffffffff168154811061143857fe5b60009182526020909120015561146d565b60018163ffffffff168154811061145c57fe5b906000526020600020015492508391505b6114778383610a78565b9350600263ffffffff86160494506001016113e5565b5060035460649063ffffffff908116600101166003805463ffffffff19169290910663ffffffff9081169290921790819055849160049116606481106114cf57fe5b01555050600354600160201b900463ffffffff1660001901949350505050565b6114f76119ae565b60695460715461150c9163ffffffff6119fa16565b607155565b80341461154f5760405162461bcd60e51b8152600401808060200182810382526030815260200180611f646030913960400191505060405180910390fd5b606d5460408051622fcfcb60e31b815290516000926001600160a01b03169163017e7e58916004808301926020929190829003018186803b15801561159357600080fd5b505afa1580156115a7573d6000803e3d6000fd5b505050506040513d60208110156115bd57600080fd5b5051606d5460408051633b46a6e760e01b815290519293506000926001600160a01b0390921691633b46a6e791600480820192602092909190829003018186803b15801561160a57600080fd5b505afa15801561161e573d6000803e3d6000fd5b505050506040513d602081101561163457600080fd5b5051905060006001600160a01b0383161580159061165157508115155b9050801561169757600061166760695484611a54565b90506116878861168260695461167d8a866119fa565b6112bd565b611a96565b6116918482611a96565b506116a7565b6116a787611682606954886112bd565b84156116b7576116b78686611a96565b8315611750576040516000906001600160a01b0389169086908381818185875af1925050503d8060008114611708576040519150601f19603f3d011682016040523d82523d6000602084013e61170d565b606091505b505090508061174e576040516001600160a01b0388169086156108fc029087906000818181858888f1935050505015801561174c573d6000803e3d6000fd5b505b505b50505050505050565b600081848411156117e85760405162461bcd60e51b81526004018080602001828103825283818151815260200191508051906020019080838360005b838110156117ad578181015183820152602001611795565b50505050905090810190601f1680156117da5780820380516001836020036101000a031916815260200191505b509250505060405180910390fd5b505050900390565b611802826001600160a01b0316611c61565b611853576040805162461bcd60e51b815260206004820152601f60248201527f5361666545524332303a2063616c6c20746f206e6f6e2d636f6e747261637400604482015290519081900360640190fd5b60006060836001600160a01b0316836040518082805190602001908083835b602083106118915780518252601f199092019160209182019101611872565b6001836020036101000a0380198251168184511680821785525050505050509050019150506000604051808303816000865af19150503d80600081146118f3576040519150601f19603f3d011682016040523d82523d6000602084013e6118f8565b606091505b50915091508161194f576040805162461bcd60e51b815260206004820181905260248201527f5361666545524332303a206c6f772d6c6576656c2063616c6c206661696c6564604482015290519081900360640190fd5b8051156119a85780806020019051602081101561196b57600080fd5b50516119a85760405162461bcd60e51b815260040180806020018281038252602a81526020018061207c602a913960400191505060405180910390fd5b50505050565b34156119eb5760405162461bcd60e51b815260040180806020018281038252603081526020018061204c6030913960400191505060405180910390fd5b6119f83330606954611c9d565b565b6000828201838110156112ff576040805162461bcd60e51b815260206004820152601b60248201527f536166654d6174683a206164646974696f6e206f766572666c6f770000000000604482015290519081900360640190fd5b60006112ff83836040518060400160405280601a81526020017f536166654d6174683a206469766973696f6e206279207a65726f000000000000815250611e83565b606f54604080516001600160a01b038581166024830152604480830186905283518084039091018152606490920183526020820180516001600160e01b031663a9059cbb60e01b178152925182516000956060959316939282918083835b60208310611b135780518252601f199092019160209182019101611af4565b6001836020036101000a0380198251168184511680821785525050505050509050019150506000604051808303816000865af19150503d8060008114611b75576040519150601f19603f3d011682016040523d82523d6000602084013e611b7a565b606091505b509150915081611bc5576040805162461bcd60e51b81526020600482015260116024820152706e6f7420656e6f75676820746f6b656e7360781b604482015290519081900360640190fd5b8051156119a8578051602014611c0c5760405162461bcd60e51b815260040180806020018281038252602a815260200180611f3a602a913960400191505060405180910390fd5b808060200190516020811015611c2157600080fd5b50519150816119a85760405162461bcd60e51b8152600401808060200182810382526027815260200180611f946027913960400191505060405180910390fd5b6000813f7fc5d2460186f7233c927e7db2dcc703c0e500b653ca82273b7bfad8045d85a470818114801590611c9557508115155b949350505050565b606f54604080516001600160a01b0386811660248301528581166044830152606480830186905283518084039091018152608490920183526020820180516001600160e01b03166323b872dd60e01b178152925182516000956060959316939282918083835b60208310611d225780518252601f199092019160209182019101611d03565b6001836020036101000a0380198251168184511680821785525050505050509050019150506000604051808303816000865af19150503d8060008114611d84576040519150601f19603f3d011682016040523d82523d6000602084013e611d89565b606091505b509150915081611de0576040805162461bcd60e51b815260206004820152601960248201527f6e6f7420656e6f75676820616c6c6f77656420746f6b656e7300000000000000604482015290519081900360640190fd5b805115611e7c578051602014611e275760405162461bcd60e51b815260040180806020018281038252602a815260200180611f3a602a913960400191505060405180910390fd5b808060200190516020811015611e3c57600080fd5b5051915081611e7c5760405162461bcd60e51b815260040180806020018281038252602f815260200180611fdc602f913960400191505060405180910390fd5b5050505050565b60008183611ed25760405162461bcd60e51b81526020600482018181528351602484015283519092839260449091019190850190808383600083156117ad578181015183820152602001611795565b506000838581611ede57fe5b049594505050505056fe4f6e6c79206f776e65722063616e2063616c6c20746869732066756e6374696f6e2e4d65726b6c6520747265652069732066756c6c2e204e6f206d6f7265206c656166732063616e20626520616464656464617461206c656e6774682073686f756c64206265206569746865722030206f72203332206279746573496e636f727265637420726566756e6420616d6f756e742072656365697665642062792074686520636f6e74726163746e6f7420656e6f75676820746f6b656e732e20546f6b656e2072657475726e732066616c73652e5f72696768742073686f756c6420626520696e7369646520746865206669656c646e6f7420656e6f75676820616c6c6f77656420746f6b656e732e20546f6b656e2072657475726e732066616c73652e30644e72e131a029b85045b68181585d2833e84879b9709143e1f593f000000154686520636f6d6d69746d656e7420686173206265656e207375626d69747465644554482076616c756520697320737570706f73656420746f206265203020666f7220455243323020696e7374616e63655361666545524332303a204552433230206f7065726174696f6e20646964206e6f742073756363656564a265627a7a72315820aebffab00ca89633b722044cd0fb26bf190515e7f9c1286bcda0e56b34b9e74b64736f6c6343000511003264656e6f6d696e6174696f6e2073686f756c642062652067726561746572207468616e2030405787fa12a823e0f2b7631cc41b3ba8828b3321ca811111fa75cd3aa3bb5ace5f72696768742073686f756c6420626520696e7369646520746865206669656c645f747265654c6576656c732073686f756c642062652067726561746572207468616e207a65726f30644e72e131a029b85045b68181585d2833e84879b9709143e1f593f00000015f747265654c6576656c732073686f756c64206265206c657373207468616e203332b10e2d527612073b26eecdfd717e6a320cf44b4afac2b0732d9fcbe2b7fa0cf6",
  "source": "pragma solidity 0.5.17;\n\nimport \"./ERC20Tornado.sol\";\nimport \"@openzeppelin/contracts/math/SafeMath.sol\";\nimport \"@openzeppelin/contracts/token/ERC20/IERC20.sol\";\nimport \"@openzeppelin/contracts/token/ERC20/SafeERC20.sol\";\n\ncontract ERC20Morphose is ERC20Tornado {\n  using SafeERC20 for IERC20;\n  using SafeMath for uint256;\n\n  address public governance;\n  uint256 public totalDepositBalance;\n\n  constructor(\n    IVerifier _verifier,\n    IFeeManager _feeManager,\n    uint256 _denomination,\n    uint32 _merkleTreeHeight,\n    address _owner,\n    address _token,\n    address _governance\n  ) ERC20Tornado(_verifier, _feeManager, _denomination, _merkleTreeHeight, _owner, _token) public {\n    governance = _governance;\n  }\n\n  function _processDeposit() internal {\n    super._processDeposit();\n    totalDepositBalance = totalDepositBalance.add(denomination);\n  }\n\n  function _processWithdraw(address payable _recipient, address payable _relayer, uint256 _relayer_fee, uint256 _refund) internal {\n    super._processWithdraw(\n      _recipient,\n      _relayer,\n      _relayer_fee,\n      _refund\n    );\n    totalDepositBalance = totalDepositBalance.sub(denomination);\n  }\n\n  // @dev Claims extra tokens in contract to send back to governance\n  // @param token The token address to claim\n  function governanceClaim(IERC20 _token) external {\n    uint256 balance = _token.balanceOf(address(this));\n    uint256 claimable = balance;\n    if (_isPoolToken(address(_token))) {\n      claimable = balance.sub(totalDepositBalance);\n    }\n    require(claimable > 0, \"Can't claim a 0 amount\");\n    _token.safeTransfer(governance, claimable);\n  }\n\n  function _isPoolToken(address _token) internal returns (bool) {\n    return _token == token;\n  }\n}\n",
  "sourcePath": "/Users/gautam/Documents/poof-core/contracts/ERC20Morphose.sol",
  "compiler": {
    "name": "solc",
    "version": "0.5.17+commit.d19bba13.Emscripten.clang"
  },
  "schemaVersion": "3.2.3",
  "updatedAt": "2021-11-27T05:40:52.121Z",
  "networkType": "ethereum",
  "devdoc": {
    "methods": {
      "changeOwner(address)": {
        "details": "owner can change his address "
      },
      "deposit(bytes32,bytes)": {
        "details": "Deposit funds into the contract. The caller must send (for ETH) or approve (for ERC20) value equal to or `denomination` of this instance.",
        "params": {
          "_commitment": "the note commitment, which is PedersenHash(nullifier + secret)"
        }
      },
      "getLastRoot()": {
        "details": "Returns the last root"
      },
      "hashLeftRight(bytes32,bytes32)": {
        "details": "Hash 2 tree leaves, returns MiMC(_left, _right)"
      },
      "isKnownRoot(bytes32)": {
        "details": "Whether the root is present in the root history"
      },
      "isSpent(bytes32)": {
        "details": "whether a note is already spent "
      },
      "isSpentArray(bytes32[])": {
        "details": "whether an array of notes is already spent "
      },
      "updateVerifier(address)": {
        "details": "allow owner to update SNARK verification keys. This is needed to update keys after the final trusted setup ceremony is held. After that owner rights are supposed to be transferred to zero address"
      },
      "withdraw(bytes,bytes32,bytes32,address,address,uint256,uint256)": {
        "details": "Withdraw a deposit from the contract. `proof` is a zkSNARK proof data, and input is an array of circuit public inputs `input` array consists of: - merkle root of all deposits in the contract - hash of unique deposit nullifier to prevent double spends - the recipient of funds - optional fee that goes to the transaction sender (usually a relay)"
      }
    }
  },
  "userdoc": {
    "methods": {}
  }
}