{
  "contractName": "ERC20Tornado",
  "abi": [
    {
      "inputs": [
        {
          "internalType": "contract IVerifier",
          "name": "_verifier",
          "type": "address"
        },
        {
          "internalType": "contract IFeeManager",
          "name": "_feeManager",
          "type": "address"
        },
        {
          "internalType": "uint256",
          "name": "_denomination",
          "type": "uint256"
        },
        {
          "internalType": "uint32",
          "name": "_merkleTreeHeight",
          "type": "uint32"
        },
        {
          "internalType": "address",
          "name": "_owner",
          "type": "address"
        },
        {
          "internalType": "address",
          "name": "_token",
          "type": "address"
        }
      ],
      "payable": false,
      "stateMutability": "nonpayable",
      "type": "constructor"
    },
    {
      "anonymous": false,
      "inputs": [
        {
          "indexed": true,
          "internalType": "bytes32",
          "name": "commitment",
          "type": "bytes32"
        },
        {
          "indexed": false,
          "internalType": "uint32",
          "name": "leafIndex",
          "type": "uint32"
        },
        {
          "indexed": false,
          "internalType": "uint256",
          "name": "timestamp",
          "type": "uint256"
        }
      ],
      "name": "Deposit",
      "type": "event"
    },
    {
      "anonymous": false,
      "inputs": [
        {
          "indexed": true,
          "internalType": "address",
          "name": "sender",
          "type": "address"
        },
        {
          "indexed": false,
          "internalType": "bytes",
          "name": "encryptedNote",
          "type": "bytes"
        }
      ],
      "name": "EncryptedNote",
      "type": "event"
    },
    {
      "anonymous": false,
      "inputs": [
        {
          "indexed": true,
          "internalType": "address",
          "name": "previousOwner",
          "type": "address"
        },
        {
          "indexed": true,
          "internalType": "address",
          "name": "newOwner",
          "type": "address"
        }
      ],
      "name": "OwnershipTransferred",
      "type": "event"
    },
    {
      "anonymous": false,
      "inputs": [
        {
          "indexed": true,
          "internalType": "address",
          "name": "previousVerifier",
          "type": "address"
        },
        {
          "indexed": true,
          "internalType": "address",
          "name": "newVerifier",
          "type": "address"
        }
      ],
      "name": "VerifierChanged",
      "type": "event"
    },
    {
      "anonymous": false,
      "inputs": [
        {
          "indexed": false,
          "internalType": "address",
          "name": "to",
          "type": "address"
        },
        {
          "indexed": false,
          "internalType": "bytes32",
          "name": "nullifierHash",
          "type": "bytes32"
        },
        {
          "indexed": true,
          "internalType": "address",
          "name": "relayer",
          "type": "address"
        },
        {
          "indexed": false,
          "internalType": "uint256",
          "name": "fee",
          "type": "uint256"
        }
      ],
      "name": "Withdrawal",
      "type": "event"
    },
    {
      "constant": true,
      "inputs": [],
      "name": "FIELD_SIZE",
      "outputs": [
        {
          "internalType": "uint256",
          "name": "",
          "type": "uint256"
        }
      ],
      "payable": false,
      "stateMutability": "view",
      "type": "function"
    },
    {
      "constant": true,
      "inputs": [],
      "name": "ROOT_HISTORY_SIZE",
      "outputs": [
        {
          "internalType": "uint32",
          "name": "",
          "type": "uint32"
        }
      ],
      "payable": false,
      "stateMutability": "view",
      "type": "function"
    },
    {
      "constant": true,
      "inputs": [],
      "name": "ZERO_VALUE",
      "outputs": [
        {
          "internalType": "uint256",
          "name": "",
          "type": "uint256"
        }
      ],
      "payable": false,
      "stateMutability": "view",
      "type": "function"
    },
    {
      "constant": false,
      "inputs": [
        {
          "internalType": "address",
          "name": "_newOwner",
          "type": "address"
        }
      ],
      "name": "changeOwner",
      "outputs": [],
      "payable": false,
      "stateMutability": "nonpayable",
      "type": "function"
    },
    {
      "constant": true,
      "inputs": [
        {
          "internalType": "bytes32",
          "name": "",
          "type": "bytes32"
        }
      ],
      "name": "commitments",
      "outputs": [
        {
          "internalType": "bool",
          "name": "",
          "type": "bool"
        }
      ],
      "payable": false,
      "stateMutability": "view",
      "type": "function"
    },
    {
      "constant": true,
      "inputs": [],
      "name": "currentRootIndex",
      "outputs": [
        {
          "internalType": "uint32",
          "name": "",
          "type": "uint32"
        }
      ],
      "payable": false,
      "stateMutability": "view",
      "type": "function"
    },
    {
      "constant": true,
      "inputs": [],
      "name": "denomination",
      "outputs": [
        {
          "internalType": "uint256",
          "name": "",
          "type": "uint256"
        }
      ],
      "payable": false,
      "stateMutability": "view",
      "type": "function"
    },
    {
      "constant": false,
      "inputs": [
        {
          "internalType": "bytes32",
          "name": "_commitment",
          "type": "bytes32"
        },
        {
          "internalType": "bytes",
          "name": "_encryptedNote",
          "type": "bytes"
        }
      ],
      "name": "deposit",
      "outputs": [],
      "payable": true,
      "stateMutability": "payable",
      "type": "function"
    },
    {
      "constant": true,
      "inputs": [],
      "name": "feeManager",
      "outputs": [
        {
          "internalType": "contract IFeeManager",
          "name": "",
          "type": "address"
        }
      ],
      "payable": false,
      "stateMutability": "view",
      "type": "function"
    },
    {
      "constant": true,
      "inputs": [
        {
          "internalType": "uint256",
          "name": "",
          "type": "uint256"
        }
      ],
      "name": "filledSubtrees",
      "outputs": [
        {
          "internalType": "bytes32",
          "name": "",
          "type": "bytes32"
        }
      ],
      "payable": false,
      "stateMutability": "view",
      "type": "function"
    },
    {
      "constant": true,
      "inputs": [],
      "name": "getLastRoot",
      "outputs": [
        {
          "internalType": "bytes32",
          "name": "",
          "type": "bytes32"
        }
      ],
      "payable": false,
      "stateMutability": "view",
      "type": "function"
    },
    {
      "constant": true,
      "inputs": [
        {
          "internalType": "bytes32",
          "name": "_left",
          "type": "bytes32"
        },
        {
          "internalType": "bytes32",
          "name": "_right",
          "type": "bytes32"
        }
      ],
      "name": "hashLeftRight",
      "outputs": [
        {
          "internalType": "bytes32",
          "name": "",
          "type": "bytes32"
        }
      ],
      "payable": false,
      "stateMutability": "pure",
      "type": "function"
    },
    {
      "constant": true,
      "inputs": [
        {
          "internalType": "bytes32",
          "name": "_root",
          "type": "bytes32"
        }
      ],
      "name": "isKnownRoot",
      "outputs": [
        {
          "internalType": "bool",
          "name": "",
          "type": "bool"
        }
      ],
      "payable": false,
      "stateMutability": "view",
      "type": "function"
    },
    {
      "constant": true,
      "inputs": [
        {
          "internalType": "bytes32",
          "name": "_nullifierHash",
          "type": "bytes32"
        }
      ],
      "name": "isSpent",
      "outputs": [
        {
          "internalType": "bool",
          "name": "",
          "type": "bool"
        }
      ],
      "payable": false,
      "stateMutability": "view",
      "type": "function"
    },
    {
      "constant": true,
      "inputs": [
        {
          "internalType": "bytes32[]",
          "name": "_nullifierHashes",
          "type": "bytes32[]"
        }
      ],
      "name": "isSpentArray",
      "outputs": [
        {
          "internalType": "bool[]",
          "name": "spent",
          "type": "bool[]"
        }
      ],
      "payable": false,
      "stateMutability": "view",
      "type": "function"
    },
    {
      "constant": true,
      "inputs": [],
      "name": "levels",
      "outputs": [
        {
          "internalType": "uint32",
          "name": "",
          "type": "uint32"
        }
      ],
      "payable": false,
      "stateMutability": "view",
      "type": "function"
    },
    {
      "constant": true,
      "inputs": [],
      "name": "nextIndex",
      "outputs": [
        {
          "internalType": "uint32",
          "name": "",
          "type": "uint32"
        }
      ],
      "payable": false,
      "stateMutability": "view",
      "type": "function"
    },
    {
      "constant": true,
      "inputs": [
        {
          "internalType": "bytes32",
          "name": "",
          "type": "bytes32"
        }
      ],
      "name": "nullifierHashes",
      "outputs": [
        {
          "internalType": "bool",
          "name": "",
          "type": "bool"
        }
      ],
      "payable": false,
      "stateMutability": "view",
      "type": "function"
    },
    {
      "constant": true,
      "inputs": [],
      "name": "owner",
      "outputs": [
        {
          "internalType": "address",
          "name": "",
          "type": "address"
        }
      ],
      "payable": false,
      "stateMutability": "view",
      "type": "function"
    },
    {
      "constant": true,
      "inputs": [
        {
          "internalType": "uint256",
          "name": "",
          "type": "uint256"
        }
      ],
      "name": "roots",
      "outputs": [
        {
          "internalType": "bytes32",
          "name": "",
          "type": "bytes32"
        }
      ],
      "payable": false,
      "stateMutability": "view",
      "type": "function"
    },
    {
      "constant": true,
      "inputs": [],
      "name": "token",
      "outputs": [
        {
          "internalType": "address",
          "name": "",
          "type": "address"
        }
      ],
      "payable": false,
      "stateMutability": "view",
      "type": "function"
    },
    {
      "constant": false,
      "inputs": [
        {
          "internalType": "address",
          "name": "_newVerifier",
          "type": "address"
        }
      ],
      "name": "updateVerifier",
      "outputs": [],
      "payable": false,
      "stateMutability": "nonpayable",
      "type": "function"
    },
    {
      "constant": true,
      "inputs": [],
      "name": "verifier",
      "outputs": [
        {
          "internalType": "contract IVerifier",
          "name": "",
          "type": "address"
        }
      ],
      "payable": false,
      "stateMutability": "view",
      "type": "function"
    },
    {
      "constant": false,
      "inputs": [
        {
          "internalType": "bytes",
          "name": "_proof",
          "type": "bytes"
        },
        {
          "internalType": "bytes32",
          "name": "_root",
          "type": "bytes32"
        },
        {
          "internalType": "bytes32",
          "name": "_nullifierHash",
          "type": "bytes32"
        },
        {
          "internalType": "address payable",
          "name": "_recipient",
          "type": "address"
        },
        {
          "internalType": "address payable",
          "name": "_relayer",
          "type": "address"
        },
        {
          "internalType": "uint256",
          "name": "_fee",
          "type": "uint256"
        },
        {
          "internalType": "uint256",
          "name": "_refund",
          "type": "uint256"
        }
      ],
      "name": "withdraw",
      "outputs": [],
      "payable": true,
      "stateMutability": "payable",
      "type": "function"
    },
    {
      "constant": true,
      "inputs": [
        {
          "internalType": "uint256",
          "name": "",
          "type": "uint256"
        }
      ],
      "name": "zeros",
      "outputs": [
        {
          "internalType": "bytes32",
          "name": "",
          "type": "bytes32"
        }
      ],
      "payable": false,
      "stateMutability": "view",
      "type": "function"
    }
  ],
  "bytecode": "0x6080604052600380546001600160401b03191690553480156200002157600080fd5b50604051620021d5380380620021d5833981810160405260c08110156200004757600080fd5b508051602082015160408301516060840151608085015160a090950151939492939192909185858585858163ffffffff8116620000b65760405162461bcd60e51b81526004018080602001828103825260278152602001806200214c6027913960400191505060405180910390fd5b60208163ffffffff1610620000fd5760405162461bcd60e51b8152600401808060200182810382526022815260200180620021936022913960400191505060405180910390fd5b6000805463ffffffff191663ffffffff83161781556002805460018181019092557f2fe54c60d3acabf3343a35b6eba15db4821b340f76e741e2249685ed4899af6c6000805160206200210b8339815191529091018190558154808301835592829052600080516020620021b58339815191529092018290555b60005463ffffffff9081169082161015620001eb57620001a182806001600160e01b03620002b316565b6002805460018181019092556000805160206200210b83398151915201829055805480820182556000829052600080516020620021b5833981519152018290559092500162000177565b506200020181806001600160e01b03620002b316565b60046000015550506068805460ff1916600117905582620002545760405162461bcd60e51b8152600401808060200182810382526025815260200180620020e66025913960400191505060405180910390fd5b606c80546001600160a01b03199081166001600160a01b0397881617909155606d8054821695871695909517909455606e8054851691861691909117905550606955606f80549091169290911691909117905550620004a09350505050565b600060008051602062002173833981519152831062000319576040805162461bcd60e51b815260206004820181905260248201527f5f6c6566742073686f756c6420626520696e7369646520746865206669656c64604482015290519081900360640190fd5b600080516020620021738339815191528210620003685760405162461bcd60e51b81526004018080602001828103825260218152602001806200212b6021913960400191505060405180910390fd5b6040805163f47d33b560e01b81526004810185905260006024820181905282518693919273__Hasher________________________________9263f47d33b592604480840193829003018186803b158015620003c357600080fd5b505af4158015620003d8573d6000803e3d6000fd5b505050506040513d6040811015620003ef57600080fd5b508051602090910151909250905060008051602062002173833981519152848308915073__Hasher________________________________63f47d33b583836040518363ffffffff1660e01b81526004018083815260200182815260200192505050604080518083038186803b1580156200046957600080fd5b505af41580156200047e573d6000803e3d6000fd5b505050506040513d60408110156200049557600080fd5b505195945050505050565b611c3680620004b06000396000f3fe6080604052600436106101665760003560e01c80639fa12d0b116100d1578063e29973fc1161008a578063ec73295911610064578063ec732959146105f0578063f178e47c14610605578063fc0c546a1461062f578063fc7e9c6f1461064457610166565b8063e29973fc14610527578063e5285dcc1461059c578063e8295588146105c657610166565b80639fa12d0b146103c0578063a6f9dae11461048b578063ba70f757146104be578063c2b40ae4146104d3578063cd87a3b4146104fd578063d0fb02031461051257610166565b80636d9833e3116101235780636d9833e3146102fa578063839df945146103245780638bca6d161461034e5780638da5cb5b1461036357806390eeb02b1461037857806397fc007c1461038d57610166565b806317cc915c1461016b57806321a0adb6146101a95780632b7ac3f31461024457806338bf282e14610275578063414a37ba146102b75780634ecf518b146102cc575b600080fd5b34801561017757600080fd5b506101956004803603602081101561018e57600080fd5b5035610659565b604080519115158252519081900360200190f35b610242600480360360e08110156101bf57600080fd5b810190602081018135600160201b8111156101d957600080fd5b8201836020820111156101eb57600080fd5b803590602001918460018302840111600160201b8311171561020c57600080fd5b91935091508035906020810135906001600160a01b03604082013581169160608101359091169060808101359060a0013561066e565b005b34801561025057600080fd5b506102596109bb565b604080516001600160a01b039092168252519081900360200190f35b34801561028157600080fd5b506102a56004803603604081101561029857600080fd5b50803590602001356109ca565b60408051918252519081900360200190f35b3480156102c357600080fd5b506102a5610bab565b3480156102d857600080fd5b506102e1610bbd565b6040805163ffffffff9092168252519081900360200190f35b34801561030657600080fd5b506101956004803603602081101561031d57600080fd5b5035610bc9565b34801561033057600080fd5b506101956004803603602081101561034757600080fd5b5035610c3c565b34801561035a57600080fd5b506102a5610c51565b34801561036f57600080fd5b50610259610c57565b34801561038457600080fd5b506102e1610c66565b34801561039957600080fd5b50610242600480360360208110156103b057600080fd5b50356001600160a01b0316610c72565b3480156103cc57600080fd5b5061043b600480360360208110156103e357600080fd5b810190602081018135600160201b8111156103fd57600080fd5b82018360208201111561040f57600080fd5b803590602001918460208302840111600160201b8311171561043057600080fd5b509092509050610d17565b60408051602080825283518183015283519192839290830191858101910280838360005b8381101561047757818101518382015260200161045f565b505050509050019250505060405180910390f35b34801561049757600080fd5b50610242600480360360208110156104ae57600080fd5b50356001600160a01b0316610d9f565b3480156104ca57600080fd5b506102a5610e44565b3480156104df57600080fd5b506102a5600480360360208110156104f657600080fd5b5035610e64565b34801561050957600080fd5b506102e1610e78565b34801561051e57600080fd5b50610259610e7d565b6102426004803603604081101561053d57600080fd5b81359190810190604081016020820135600160201b81111561055e57600080fd5b82018360208201111561057057600080fd5b803590602001918460018302840111600160201b8311171561059157600080fd5b509092509050610e8c565b3480156105a857600080fd5b50610195600480360360208110156105bf57600080fd5b5035611025565b3480156105d257600080fd5b506102a5600480360360208110156105e957600080fd5b503561103a565b3480156105fc57600080fd5b506102a5611058565b34801561061157600080fd5b506102a56004803603602081101561062857600080fd5b503561107c565b34801561063b57600080fd5b50610259611089565b34801561065057600080fd5b506102e1611098565b606a6020526000908152604090205460ff1681565b60685460ff166106c5576040805162461bcd60e51b815260206004820152601f60248201527f5265656e7472616e637947756172643a207265656e7472616e742063616c6c00604482015290519081900360640190fd5b6068805460ff19169055606954821115610726576040805162461bcd60e51b815260206004820152601a60248201527f4665652065786365656473207472616e736665722076616c7565000000000000604482015290519081900360640190fd5b6000858152606a602052604090205460ff161561078a576040805162461bcd60e51b815260206004820152601f60248201527f546865206e6f746520686173206265656e20616c7265616479207370656e7400604482015290519081900360640190fd5b61079386610bc9565b6107e4576040805162461bcd60e51b815260206004820152601c60248201527f43616e6e6f742066696e6420796f7572206d65726b6c6520726f6f7400000000604482015290519081900360640190fd5b606c546040805160c08082018352898252602082018990526001600160a01b038881168385015287811660608401526080830187905260a08301869052925163695ef6f960e01b8152929093169263695ef6f9928c928c9290916004810191829160240190849080838360005b83811015610869578181015183820152602001610851565b505050509050018281038252858582818152602001925080828437600081840152601f19601f820116905080830192505050945050505050602060405180830381600087803b1580156108bb57600080fd5b505af11580156108cf573d6000803e3d6000fd5b505050506040513d60208110156108e557600080fd5b5051610931576040805162461bcd60e51b815260206004820152601660248201527524b73b30b634b2103bb4ba34323930bb90383937b7b360511b604482015290519081900360640190fd5b6000858152606a60205260409020805460ff19166001179055610956848484846110ab565b604080516001600160a01b038681168252602082018890528183018590529151918516917fe9e508bad6d4c3227e881ca19068f099da81b5164dd6d62b2eaf1e8bc6c349319181900360600190a250506068805460ff19166001179055505050505050565b606c546001600160a01b031681565b6000600080516020611b918339815191528310610a2e576040805162461bcd60e51b815260206004820181905260248201527f5f6c6566742073686f756c6420626520696e7369646520746865206669656c64604482015290519081900360640190fd5b600080516020611b918339815191528210610a7a5760405162461bcd60e51b8152600401808060200182810382526021815260200180611b416021913960400191505060405180910390fd5b6040805163f47d33b560e01b81526004810185905260006024820181905282518693919273__Hasher________________________________9263f47d33b592604480840193829003018186803b158015610ad457600080fd5b505af4158015610ae8573d6000803e3d6000fd5b505050506040513d6040811015610afe57600080fd5b5080516020909101519092509050600080516020611b91833981519152848308915073__Hasher________________________________63f47d33b583836040518363ffffffff1660e01b81526004018083815260200182815260200192505050604080518083038186803b158015610b7657600080fd5b505af4158015610b8a573d6000803e3d6000fd5b505050506040513d6040811015610ba057600080fd5b505195945050505050565b600080516020611b9183398151915281565b60005463ffffffff1681565b600081610bd857506000610c37565b60035463ffffffff165b60048163ffffffff1660648110610bf557fe5b0154831415610c08576001915050610c37565b63ffffffff8116610c17575060645b6003546000199091019063ffffffff80831691161415610be25760009150505b919050565b606b6020526000908152604090205460ff1681565b60695481565b606e546001600160a01b031681565b60035463ffffffff1681565b606e546001600160a01b03163314610cbb5760405162461bcd60e51b8152600401808060200182810382526022815260200180611a6f6022913960400191505060405180910390fd5b606c546040516001600160a01b038084169216907f0ddda8be1021ab00f63727c5c5504ad96b163269770a3fe8ac3dd0bcb40208df90600090a3606c80546001600160a01b0319166001600160a01b0392909216919091179055565b604080518281526020808402820101909152606090828015610d43578160200160208202803883390190505b50905060005b82811015610d9857610d6c848483818110610d6057fe5b90506020020135611025565b15610d90576001828281518110610d7f57fe5b911515602092830291909101909101525b600101610d49565b5092915050565b606e546001600160a01b03163314610de85760405162461bcd60e51b8152600401808060200182810382526022815260200180611a6f6022913960400191505060405180910390fd5b606e546040516001600160a01b038084169216907f8be0079c531659141344cd1fd0a4f28419497f9722a3daafe3b4186f6b6457e090600090a3606e80546001600160a01b0319166001600160a01b0392909216919091179055565b60035460009060049063ffffffff1660648110610e5d57fe5b0154905090565b60048160648110610e7157fe5b0154905081565b606481565b606d546001600160a01b031681565b60685460ff16610ee3576040805162461bcd60e51b815260206004820152601f60248201527f5265656e7472616e637947756172643a207265656e7472616e742063616c6c00604482015290519081900360640190fd5b6068805460ff191690556000838152606b602052604090205460ff1615610f3b5760405162461bcd60e51b8152600401808060200182810382526021815260200180611bb16021913960400191505060405180910390fd5b6000610f46846112f3565b6000858152606b60205260409020805460ff191660011790559050610f6961148a565b6040805163ffffffff83168152426020820152815186927fa945e51eec50ab98c161376f0db4cf2aeba3ec92755fe2fcd388bdbbb80ff196928290030190a2336001600160a01b03167ffa28df43db3553771f7209dcef046f3bdfea15870ab625dcda30ac58b82b4008848460405180806020018281038252848482818152602001925080828437600083820152604051601f909101601f19169092018290039550909350505050a250506068805460ff191660011790555050565b6000908152606a602052604090205460ff1690565b6002818154811061104757fe5b600091825260209091200154905081565b7f2fe54c60d3acabf3343a35b6eba15db4821b340f76e741e2249685ed4899af6c81565b6001818154811061104757fe5b606f546001600160a01b031681565b600354600160201b900463ffffffff1681565b8034146110e95760405162461bcd60e51b8152600401808060200182810382526030815260200180611aea6030913960400191505060405180910390fd5b606d5460408051622fcfcb60e31b815290516000926001600160a01b03169163017e7e58916004808301926020929190829003018186803b15801561112d57600080fd5b505afa158015611141573d6000803e3d6000fd5b505050506040513d602081101561115757600080fd5b5051606d5460408051633b46a6e760e01b815290519293506000926001600160a01b0390921691633b46a6e791600480820192602092909190829003018186803b1580156111a457600080fd5b505afa1580156111b8573d6000803e3d6000fd5b505050506040513d60208110156111ce57600080fd5b5051905060006001600160a01b038316158015906111eb57508115155b90508015611231576000611201606954846114d6565b90506112218861121c6069546112178a8661151f565b611579565b6115bb565b61122b84826115bb565b50611241565b6112418761121c60695488611579565b84156112515761125186866115bb565b83156112ea576040516000906001600160a01b0389169086908381818185875af1925050503d80600081146112a2576040519150601f19603f3d011682016040523d82523d6000602084013e6112a7565b606091505b50509050806112e8576040516001600160a01b0388169086156108fc029087906000818181858888f193505050501580156112e6573d6000803e3d6000fd5b505b505b50505050505050565b60035460008054909163ffffffff600160201b909104811691811660020a168114156113505760405162461bcd60e51b815260040180806020018281038252602f815260200180611a91602f913960400191505060405180910390fd5b6003805463ffffffff600160201b80830482166001019091160267ffffffff000000001990911617905582600080805b60005463ffffffff908116908216101561142857600185166113e45783925060028163ffffffff16815481106113b257fe5b906000526020600020015491508360018263ffffffff16815481106113d357fe5b600091825260209091200155611408565b60018163ffffffff16815481106113f757fe5b906000526020600020015492508391505b61141283836109ca565b9350600263ffffffff8616049450600101611380565b5060035460649063ffffffff908116600101166003805463ffffffff19169290910663ffffffff90811692909217908190558491600491166064811061146a57fe5b01555050600354600160201b900463ffffffff1660001901949350505050565b34156114c75760405162461bcd60e51b8152600401808060200182810382526030815260200180611bd26030913960400191505060405180910390fd5b6114d4333060695461178c565b565b600061151883836040518060400160405280601a81526020017f536166654d6174683a206469766973696f6e206279207a65726f000000000000815250611972565b9392505050565b600082820183811015611518576040805162461bcd60e51b815260206004820152601b60248201527f536166654d6174683a206164646974696f6e206f766572666c6f770000000000604482015290519081900360640190fd5b600061151883836040518060400160405280601e81526020017f536166654d6174683a207375627472616374696f6e206f766572666c6f770000815250611a14565b606f54604080516001600160a01b038581166024830152604480830186905283518084039091018152606490920183526020820180516001600160e01b031663a9059cbb60e01b178152925182516000956060959316939282918083835b602083106116385780518252601f199092019160209182019101611619565b6001836020036101000a0380198251168184511680821785525050505050509050019150506000604051808303816000865af19150503d806000811461169a576040519150601f19603f3d011682016040523d82523d6000602084013e61169f565b606091505b5091509150816116ea576040805162461bcd60e51b81526020600482015260116024820152706e6f7420656e6f75676820746f6b656e7360781b604482015290519081900360640190fd5b8051156117865780516020146117315760405162461bcd60e51b815260040180806020018281038252602a815260200180611ac0602a913960400191505060405180910390fd5b80806020019051602081101561174657600080fd5b50519150816117865760405162461bcd60e51b8152600401808060200182810382526027815260200180611b1a6027913960400191505060405180910390fd5b50505050565b606f54604080516001600160a01b0386811660248301528581166044830152606480830186905283518084039091018152608490920183526020820180516001600160e01b03166323b872dd60e01b178152925182516000956060959316939282918083835b602083106118115780518252601f1990920191602091820191016117f2565b6001836020036101000a0380198251168184511680821785525050505050509050019150506000604051808303816000865af19150503d8060008114611873576040519150601f19603f3d011682016040523d82523d6000602084013e611878565b606091505b5091509150816118cf576040805162461bcd60e51b815260206004820152601960248201527f6e6f7420656e6f75676820616c6c6f77656420746f6b656e7300000000000000604482015290519081900360640190fd5b80511561196b5780516020146119165760405162461bcd60e51b815260040180806020018281038252602a815260200180611ac0602a913960400191505060405180910390fd5b80806020019051602081101561192b57600080fd5b505191508161196b5760405162461bcd60e51b815260040180806020018281038252602f815260200180611b62602f913960400191505060405180910390fd5b5050505050565b600081836119fe5760405162461bcd60e51b81526004018080602001828103825283818151815260200191508051906020019080838360005b838110156119c35781810151838201526020016119ab565b50505050905090810190601f1680156119f05780820380516001836020036101000a031916815260200191505b509250505060405180910390fd5b506000838581611a0a57fe5b0495945050505050565b60008184841115611a665760405162461bcd60e51b81526020600482018181528351602484015283519092839260449091019190850190808383600083156119c35781810151838201526020016119ab565b50505090039056fe4f6e6c79206f776e65722063616e2063616c6c20746869732066756e6374696f6e2e4d65726b6c6520747265652069732066756c6c2e204e6f206d6f7265206c656166732063616e20626520616464656464617461206c656e6774682073686f756c64206265206569746865722030206f72203332206279746573496e636f727265637420726566756e6420616d6f756e742072656365697665642062792074686520636f6e74726163746e6f7420656e6f75676820746f6b656e732e20546f6b656e2072657475726e732066616c73652e5f72696768742073686f756c6420626520696e7369646520746865206669656c646e6f7420656e6f75676820616c6c6f77656420746f6b656e732e20546f6b656e2072657475726e732066616c73652e30644e72e131a029b85045b68181585d2833e84879b9709143e1f593f000000154686520636f6d6d69746d656e7420686173206265656e207375626d69747465644554482076616c756520697320737570706f73656420746f206265203020666f7220455243323020696e7374616e6365a265627a7a723158208ab7b930596254fa5ab394e95bdb18f1df54830a991ba92ce87d560e603931b064736f6c6343000511003264656e6f6d696e6174696f6e2073686f756c642062652067726561746572207468616e2030405787fa12a823e0f2b7631cc41b3ba8828b3321ca811111fa75cd3aa3bb5ace5f72696768742073686f756c6420626520696e7369646520746865206669656c645f747265654c6576656c732073686f756c642062652067726561746572207468616e207a65726f30644e72e131a029b85045b68181585d2833e84879b9709143e1f593f00000015f747265654c6576656c732073686f756c64206265206c657373207468616e203332b10e2d527612073b26eecdfd717e6a320cf44b4afac2b0732d9fcbe2b7fa0cf6",
  "source": "// https://tornado.cash\n/*\n* d888888P                                           dP              a88888b.                   dP\n*    88                                              88             d8'   `88                   88\n*    88    .d8888b. 88d888b. 88d888b. .d8888b. .d888b88 .d8888b.    88        .d8888b. .d8888b. 88d888b.\n*    88    88'  `88 88'  `88 88'  `88 88'  `88 88'  `88 88'  `88    88        88'  `88 Y8ooooo. 88'  `88\n*    88    88.  .88 88       88    88 88.  .88 88.  .88 88.  .88 dP Y8.   .88 88.  .88       88 88    88\n*    dP    `88888P' dP       dP    dP `88888P8 `88888P8 `88888P' 88  Y88888P' `88888P8 `88888P' dP    dP\n* ooooooooooooooooooooooooooooooooooooooooooooooooooooooooooooooooooooooooooooooooooooooooooooooooooooooo\n*/\n\npragma solidity 0.5.17;\n\nimport \"@openzeppelin/contracts/math/SafeMath.sol\";\nimport \"./Tornado.sol\";\n\ncontract ERC20Tornado is Tornado {\n  address public token;\n\n  constructor(\n    IVerifier _verifier,\n    IFeeManager _feeManager,\n    uint256 _denomination,\n    uint32 _merkleTreeHeight,\n    address _owner,\n    address _token\n  ) Tornado(_verifier, _feeManager, _denomination, _merkleTreeHeight, _owner) public {\n    token = _token;\n  }\n\n  function _processDeposit() internal {\n    require(msg.value == 0, \"ETH value is supposed to be 0 for ERC20 instance\");\n    _safeErc20TransferFrom(msg.sender, address(this), denomination);\n  }\n\n  function _processWithdraw(address payable _recipient, address payable _relayer, uint256 _relayer_fee, uint256 _refund) internal {\n    require(msg.value == _refund, \"Incorrect refund amount received by the contract\");\n\n    address feeTo = feeManager.feeTo();\n    uint256 protocolFeeDivisor = feeManager.protocolFeeDivisor();\n\n    bool feeOn = feeTo != address(0) && protocolFeeDivisor != 0;\n    if (feeOn) {\n      uint256 protocolFee = SafeMath.div(denomination, protocolFeeDivisor);\n      _safeErc20Transfer(_recipient, SafeMath.sub(denomination, SafeMath.add(_relayer_fee, protocolFee)));\n      _safeErc20Transfer(feeTo, protocolFee);\n    } else {\n      _safeErc20Transfer(_recipient, SafeMath.sub(denomination, _relayer_fee));\n    }\n\n    if (_relayer_fee > 0) {\n      _safeErc20Transfer(_relayer, _relayer_fee);\n    }\n\n    if (_refund > 0) {\n      (bool success, ) = _recipient.call.value(_refund)(\"\");\n      if (!success) {\n        // let's return _refund back to the relayer\n        _relayer.transfer(_refund);\n      }\n    }\n  }\n\n  function _safeErc20TransferFrom(address _from, address _to, uint256 _amount) internal {\n    (bool success, bytes memory data) = token.call(abi.encodeWithSelector(0x23b872dd /* transferFrom */, _from, _to, _amount));\n    require(success, \"not enough allowed tokens\");\n\n    // if contract returns some data lets make sure that is `true` according to standard\n    if (data.length > 0) {\n      require(data.length == 32, \"data length should be either 0 or 32 bytes\");\n      success = abi.decode(data, (bool));\n      require(success, \"not enough allowed tokens. Token returns false.\");\n    }\n  }\n\n  function _safeErc20Transfer(address _to, uint256 _amount) internal {\n    (bool success, bytes memory data) = token.call(abi.encodeWithSelector(0xa9059cbb /* transfer */, _to, _amount));\n    require(success, \"not enough tokens\");\n\n    // if contract returns some data lets make sure that is `true` according to standard\n    if (data.length > 0) {\n      require(data.length == 32, \"data length should be either 0 or 32 bytes\");\n      success = abi.decode(data, (bool));\n      require(success, \"not enough tokens. Token returns false.\");\n    }\n  }\n}\n",
  "sourcePath": "/Users/gautam/Documents/poof-core/contracts/ERC20Tornado.sol",
  "compiler": {
    "name": "solc",
    "version": "0.5.17+commit.d19bba13.Emscripten.clang"
  },
  "schemaVersion": "3.2.3",
  "updatedAt": "2021-11-21T05:39:00.552Z",
  "devdoc": {
    "methods": {
      "changeOwner(address)": {
        "details": "owner can change his address "
      },
      "deposit(bytes32,bytes)": {
        "details": "Deposit funds into the contract. The caller must send (for ETH) or approve (for ERC20) value equal to or `denomination` of this instance.",
        "params": {
          "_commitment": "the note commitment, which is PedersenHash(nullifier + secret)"
        }
      },
      "getLastRoot()": {
        "details": "Returns the last root"
      },
      "hashLeftRight(bytes32,bytes32)": {
        "details": "Hash 2 tree leaves, returns MiMC(_left, _right)"
      },
      "isKnownRoot(bytes32)": {
        "details": "Whether the root is present in the root history"
      },
      "isSpent(bytes32)": {
        "details": "whether a note is already spent "
      },
      "isSpentArray(bytes32[])": {
        "details": "whether an array of notes is already spent "
      },
      "updateVerifier(address)": {
        "details": "allow owner to update SNARK verification keys. This is needed to update keys after the final trusted setup ceremony is held. After that owner rights are supposed to be transferred to zero address"
      },
      "withdraw(bytes,bytes32,bytes32,address,address,uint256,uint256)": {
        "details": "Withdraw a deposit from the contract. `proof` is a zkSNARK proof data, and input is an array of circuit public inputs `input` array consists of: - merkle root of all deposits in the contract - hash of unique deposit nullifier to prevent double spends - the recipient of funds - optional fee that goes to the transaction sender (usually a relay)"
      }
    }
  },
  "userdoc": {
    "methods": {}
  }
}