{
  "contractName": "ERC20Morphose",
  "abi": [
    {
      "constant": true,
      "inputs": [
        {
          "name": "",
          "type": "bytes32"
        }
      ],
      "name": "nullifierHashes",
      "outputs": [
        {
          "name": "",
          "type": "bool"
        }
      ],
      "payable": false,
      "stateMutability": "view",
      "type": "function"
    },
    {
      "constant": false,
      "inputs": [
        {
          "name": "_proof",
          "type": "bytes"
        },
        {
          "name": "_root",
          "type": "bytes32"
        },
        {
          "name": "_nullifierHash",
          "type": "bytes32"
        },
        {
          "name": "_recipient",
          "type": "address"
        },
        {
          "name": "_relayer",
          "type": "address"
        },
        {
          "name": "_fee",
          "type": "uint256"
        },
        {
          "name": "_refund",
          "type": "uint256"
        }
      ],
      "name": "withdraw",
      "outputs": [],
      "payable": true,
      "stateMutability": "payable",
      "type": "function"
    },
    {
      "constant": true,
      "inputs": [],
      "name": "verifier",
      "outputs": [
        {
          "name": "",
          "type": "address"
        }
      ],
      "payable": false,
      "stateMutability": "view",
      "type": "function"
    },
    {
      "constant": true,
      "inputs": [
        {
          "name": "_left",
          "type": "bytes32"
        },
        {
          "name": "_right",
          "type": "bytes32"
        }
      ],
      "name": "hashLeftRight",
      "outputs": [
        {
          "name": "",
          "type": "bytes32"
        }
      ],
      "payable": false,
      "stateMutability": "pure",
      "type": "function"
    },
    {
      "constant": true,
      "inputs": [],
      "name": "FIELD_SIZE",
      "outputs": [
        {
          "name": "",
          "type": "uint256"
        }
      ],
      "payable": false,
      "stateMutability": "view",
      "type": "function"
    },
    {
      "constant": true,
      "inputs": [],
      "name": "levels",
      "outputs": [
        {
          "name": "",
          "type": "uint32"
        }
      ],
      "payable": false,
      "stateMutability": "view",
      "type": "function"
    },
    {
      "constant": true,
      "inputs": [],
      "name": "governance",
      "outputs": [
        {
          "name": "",
          "type": "address"
        }
      ],
      "payable": false,
      "stateMutability": "view",
      "type": "function"
    },
    {
      "constant": true,
      "inputs": [
        {
          "name": "_root",
          "type": "bytes32"
        }
      ],
      "name": "isKnownRoot",
      "outputs": [
        {
          "name": "",
          "type": "bool"
        }
      ],
      "payable": false,
      "stateMutability": "view",
      "type": "function"
    },
    {
      "constant": true,
      "inputs": [
        {
          "name": "",
          "type": "bytes32"
        }
      ],
      "name": "commitments",
      "outputs": [
        {
          "name": "",
          "type": "bool"
        }
      ],
      "payable": false,
      "stateMutability": "view",
      "type": "function"
    },
    {
      "constant": true,
      "inputs": [],
      "name": "denomination",
      "outputs": [
        {
          "name": "",
          "type": "uint256"
        }
      ],
      "payable": false,
      "stateMutability": "view",
      "type": "function"
    },
    {
      "constant": true,
      "inputs": [],
      "name": "owner",
      "outputs": [
        {
          "name": "",
          "type": "address"
        }
      ],
      "payable": false,
      "stateMutability": "view",
      "type": "function"
    },
    {
      "constant": true,
      "inputs": [],
      "name": "currentRootIndex",
      "outputs": [
        {
          "name": "",
          "type": "uint32"
        }
      ],
      "payable": false,
      "stateMutability": "view",
      "type": "function"
    },
    {
      "constant": false,
      "inputs": [
        {
          "name": "_newVerifier",
          "type": "address"
        }
      ],
      "name": "updateVerifier",
      "outputs": [],
      "payable": false,
      "stateMutability": "nonpayable",
      "type": "function"
    },
    {
      "constant": true,
      "inputs": [
        {
          "name": "_nullifierHashes",
          "type": "bytes32[]"
        }
      ],
      "name": "isSpentArray",
      "outputs": [
        {
          "name": "spent",
          "type": "bool[]"
        }
      ],
      "payable": false,
      "stateMutability": "view",
      "type": "function"
    },
    {
      "constant": false,
      "inputs": [
        {
          "name": "_newOwner",
          "type": "address"
        }
      ],
      "name": "changeOwner",
      "outputs": [],
      "payable": false,
      "stateMutability": "nonpayable",
      "type": "function"
    },
    {
      "constant": true,
      "inputs": [],
      "name": "getLastRoot",
      "outputs": [
        {
          "name": "",
          "type": "bytes32"
        }
      ],
      "payable": false,
      "stateMutability": "view",
      "type": "function"
    },
    {
      "constant": true,
      "inputs": [
        {
          "name": "",
          "type": "uint256"
        }
      ],
      "name": "roots",
      "outputs": [
        {
          "name": "",
          "type": "bytes32"
        }
      ],
      "payable": false,
      "stateMutability": "view",
      "type": "function"
    },
    {
      "constant": true,
      "inputs": [],
      "name": "ROOT_HISTORY_SIZE",
      "outputs": [
        {
          "name": "",
          "type": "uint32"
        }
      ],
      "payable": false,
      "stateMutability": "view",
      "type": "function"
    },
    {
      "constant": true,
      "inputs": [],
      "name": "feeManager",
      "outputs": [
        {
          "name": "",
          "type": "address"
        }
      ],
      "payable": false,
      "stateMutability": "view",
      "type": "function"
    },
    {
      "constant": false,
      "inputs": [
        {
          "name": "_commitment",
          "type": "bytes32"
        },
        {
          "name": "_encryptedNote",
          "type": "bytes"
        }
      ],
      "name": "deposit",
      "outputs": [],
      "payable": true,
      "stateMutability": "payable",
      "type": "function"
    },
    {
      "constant": true,
      "inputs": [
        {
          "name": "_nullifierHash",
          "type": "bytes32"
        }
      ],
      "name": "isSpent",
      "outputs": [
        {
          "name": "",
          "type": "bool"
        }
      ],
      "payable": false,
      "stateMutability": "view",
      "type": "function"
    },
    {
      "constant": true,
      "inputs": [
        {
          "name": "",
          "type": "uint256"
        }
      ],
      "name": "zeros",
      "outputs": [
        {
          "name": "",
          "type": "bytes32"
        }
      ],
      "payable": false,
      "stateMutability": "view",
      "type": "function"
    },
    {
      "constant": true,
      "inputs": [],
      "name": "totalDepositBalance",
      "outputs": [
        {
          "name": "",
          "type": "uint256"
        }
      ],
      "payable": false,
      "stateMutability": "view",
      "type": "function"
    },
    {
      "constant": true,
      "inputs": [],
      "name": "ZERO_VALUE",
      "outputs": [
        {
          "name": "",
          "type": "uint256"
        }
      ],
      "payable": false,
      "stateMutability": "view",
      "type": "function"
    },
    {
      "constant": true,
      "inputs": [
        {
          "name": "",
          "type": "uint256"
        }
      ],
      "name": "filledSubtrees",
      "outputs": [
        {
          "name": "",
          "type": "bytes32"
        }
      ],
      "payable": false,
      "stateMutability": "view",
      "type": "function"
    },
    {
      "constant": true,
      "inputs": [],
      "name": "token",
      "outputs": [
        {
          "name": "",
          "type": "address"
        }
      ],
      "payable": false,
      "stateMutability": "view",
      "type": "function"
    },
    {
      "constant": true,
      "inputs": [],
      "name": "nextIndex",
      "outputs": [
        {
          "name": "",
          "type": "uint32"
        }
      ],
      "payable": false,
      "stateMutability": "view",
      "type": "function"
    },
    {
      "inputs": [
        {
          "name": "_verifier",
          "type": "address"
        },
        {
          "name": "_feeManager",
          "type": "address"
        },
        {
          "name": "_denomination",
          "type": "uint256"
        },
        {
          "name": "_merkleTreeHeight",
          "type": "uint32"
        },
        {
          "name": "_owner",
          "type": "address"
        },
        {
          "name": "_token",
          "type": "address"
        },
        {
          "name": "_governance",
          "type": "address"
        }
      ],
      "payable": false,
      "stateMutability": "nonpayable",
      "type": "constructor"
    },
    {
      "anonymous": false,
      "inputs": [
        {
          "indexed": true,
          "name": "commitment",
          "type": "bytes32"
        },
        {
          "indexed": false,
          "name": "leafIndex",
          "type": "uint32"
        },
        {
          "indexed": false,
          "name": "timestamp",
          "type": "uint256"
        }
      ],
      "name": "Deposit",
      "type": "event"
    },
    {
      "anonymous": false,
      "inputs": [
        {
          "indexed": false,
          "name": "to",
          "type": "address"
        },
        {
          "indexed": false,
          "name": "nullifierHash",
          "type": "bytes32"
        },
        {
          "indexed": true,
          "name": "relayer",
          "type": "address"
        },
        {
          "indexed": false,
          "name": "fee",
          "type": "uint256"
        }
      ],
      "name": "Withdrawal",
      "type": "event"
    },
    {
      "anonymous": false,
      "inputs": [
        {
          "indexed": true,
          "name": "previousOwner",
          "type": "address"
        },
        {
          "indexed": true,
          "name": "newOwner",
          "type": "address"
        }
      ],
      "name": "OwnershipTransferred",
      "type": "event"
    },
    {
      "anonymous": false,
      "inputs": [
        {
          "indexed": true,
          "name": "previousVerifier",
          "type": "address"
        },
        {
          "indexed": true,
          "name": "newVerifier",
          "type": "address"
        }
      ],
      "name": "VerifierChanged",
      "type": "event"
    },
    {
      "anonymous": false,
      "inputs": [
        {
          "indexed": true,
          "name": "sender",
          "type": "address"
        },
        {
          "indexed": false,
          "name": "encryptedNote",
          "type": "bytes"
        }
      ],
      "name": "EncryptedNote",
      "type": "event"
    },
    {
      "constant": false,
      "inputs": [
        {
          "name": "_token",
          "type": "address"
        }
      ],
      "name": "governanceClaim",
      "outputs": [],
      "payable": false,
      "stateMutability": "nonpayable",
      "type": "function"
    }
  ],
  "bytecode": "0x60806040526000600360006101000a81548163ffffffff021916908363ffffffff1602179055506000600360046101000a81548163ffffffff021916908363ffffffff1602179055503480156200005557600080fd5b5060405160e0806200396b833981018060405260e08110156200007757600080fd5b810190808051906020019092919080519060200190929190805190602001909291908051906020019092919080519060200190929190805190602001909291908051906020019092919050505086868686868685858585858160008163ffffffff1611151562000133576040517f08c379a0000000000000000000000000000000000000000000000000000000008152600401808060200182810382526027815260200180620039226027913960400191505060405180910390fd5b60208163ffffffff1610151562000196576040517f08c379a0000000000000000000000000000000000000000000000000000000008152600401808060200182810382526022815260200180620039496022913960400191505060405180910390fd5b806000806101000a81548163ffffffff021916908363ffffffff16021790555060007f2fe54c60d3acabf3343a35b6eba15db4821b340f76e741e2249685ed4899af6c60001b9050600281908060018154018082558091505090600182039060005260206000200160009091929091909150555060018190806001815401808255809150509060018203906000526020600020016000909192909190915055506000600190505b6000809054906101000a900463ffffffff1663ffffffff168163ffffffff161015620002dd57620002758283620004e460201b60201c565b91506002829080600181540180825580915050906001820390600052602060002001600090919290919091505550600182908060018154018082558091505090600182039060005260206000200160009091929091909150555080806001019150506200023d565b50620002f08182620004e460201b60201c565b600460006064811015156200030157fe5b018190555050506001606860006101000a81548160ff02191690831515021790555060008311151562000380576040517f08c379a0000000000000000000000000000000000000000000000000000000008152600401808060200182810382526025815260200180620038dc6025913960400191505060405180910390fd5b84606c60006101000a81548173ffffffffffffffffffffffffffffffffffffffff021916908373ffffffffffffffffffffffffffffffffffffffff16021790555083606d60006101000a81548173ffffffffffffffffffffffffffffffffffffffff021916908373ffffffffffffffffffffffffffffffffffffffff16021790555080606e60006101000a81548173ffffffffffffffffffffffffffffffffffffffff021916908373ffffffffffffffffffffffffffffffffffffffff16021790555082606981905550505050505080606f60006101000a81548173ffffffffffffffffffffffffffffffffffffffff021916908373ffffffffffffffffffffffffffffffffffffffff16021790555050505050505080607060006101000a81548173ffffffffffffffffffffffffffffffffffffffff021916908373ffffffffffffffffffffffffffffffffffffffff160217905550505050505050506200079a565b60007f30644e72e131a029b85045b68181585d2833e84879b9709143e1f593f00000018360001c10151562000581576040517f08c379a00000000000000000000000000000000000000000000000000000000081526004018080602001828103825260208152602001807f5f6c6566742073686f756c6420626520696e7369646520746865206669656c6481525060200191505060405180910390fd5b7f30644e72e131a029b85045b68181585d2833e84879b9709143e1f593f00000018260001c10151562000600576040517f08c379a0000000000000000000000000000000000000000000000000000000008152600401808060200182810382526021815260200180620039016021913960400191505060405180910390fd5b60008360001c9050600080905073__Hasher________________________________63f47d33b583836040518363ffffffff1660e01b81526004018083815260200182815260200192505050604080518083038186803b1580156200066457600080fd5b505af415801562000679573d6000803e3d6000fd5b505050506040513d60408110156200069057600080fd5b81019080805190602001909291908051906020019092919050505080925081935050507f30644e72e131a029b85045b68181585d2833e84879b9709143e1f593f0000001801515620006de57fe5b8460001c8308915073__Hasher________________________________63f47d33b583836040518363ffffffff1660e01b81526004018083815260200182815260200192505050604080518083038186803b1580156200073d57600080fd5b505af415801562000752573d6000803e3d6000fd5b505050506040513d60408110156200076957600080fd5b81019080805190602001909291908051906020019092919050505080925081935050508160001b9250505092915050565b61313280620007aa6000396000f3fe6080604052600436106101b75760003560e01c80639fa12d0b116100ec578063e5285dcc1161008a578063ec73295911610064578063ec732959146109de578063f178e47c14610a09578063fc0c546a14610a58578063fc7e9c6f14610aaf576101b7565b8063e5285dcc14610911578063e829558814610964578063e8c0a0df146109b3576101b7565b8063c2b40ae4116100c6578063c2b40ae4146107b1578063cd87a3b414610800578063d0fb020314610837578063e29973fc1461088e576101b7565b80639fa12d0b1461065a578063a6f9dae114610735578063ba70f75714610786576101b7565b80635aa6e675116101595780638bca6d16116101335780638bca6d16146105505780638da5cb5b1461057b57806390eeb02b146105d257806397fc007c14610609576101b7565b80635aa6e675146104535780636d9833e3146104aa578063839df945146104fd576101b7565b806338bf282e1161019557806338bf282e14610347578063414a37ba146103a05780634ecf518b146103cb578063560cdfbd14610402576101b7565b806317cc915c146101bc57806321a0adb61461020f5780632b7ac3f3146102f0575b600080fd5b3480156101c857600080fd5b506101f5600480360360208110156101df57600080fd5b8101908080359060200190929190505050610ae6565b604051808215151515815260200191505060405180910390f35b6102ee600480360360e081101561022557600080fd5b810190808035906020019064010000000081111561024257600080fd5b82018360208201111561025457600080fd5b8035906020019184600183028401116401000000008311171561027657600080fd5b90919293919293908035906020019092919080359060200190929190803573ffffffffffffffffffffffffffffffffffffffff169060200190929190803573ffffffffffffffffffffffffffffffffffffffff1690602001909291908035906020019092919080359060200190929190505050610b06565b005b3480156102fc57600080fd5b50610305610ff7565b604051808273ffffffffffffffffffffffffffffffffffffffff1673ffffffffffffffffffffffffffffffffffffffff16815260200191505060405180910390f35b34801561035357600080fd5b5061038a6004803603604081101561036a57600080fd5b81019080803590602001909291908035906020019092919050505061101d565b6040518082815260200191505060405180910390f35b3480156103ac57600080fd5b506103b56112c9565b6040518082815260200191505060405180910390f35b3480156103d757600080fd5b506103e06112ed565b604051808263ffffffff1663ffffffff16815260200191505060405180910390f35b34801561040e57600080fd5b506104516004803603602081101561042557600080fd5b81019080803573ffffffffffffffffffffffffffffffffffffffff169060200190929190505050611302565b005b34801561045f57600080fd5b506104686114b3565b604051808273ffffffffffffffffffffffffffffffffffffffff1673ffffffffffffffffffffffffffffffffffffffff16815260200191505060405180910390f35b3480156104b657600080fd5b506104e3600480360360208110156104cd57600080fd5b81019080803590602001909291905050506114d9565b604051808215151515815260200191505060405180910390f35b34801561050957600080fd5b506105366004803603602081101561052057600080fd5b810190808035906020019092919050505061157f565b604051808215151515815260200191505060405180910390f35b34801561055c57600080fd5b5061056561159f565b6040518082815260200191505060405180910390f35b34801561058757600080fd5b506105906115a5565b604051808273ffffffffffffffffffffffffffffffffffffffff1673ffffffffffffffffffffffffffffffffffffffff16815260200191505060405180910390f35b3480156105de57600080fd5b506105e76115cb565b604051808263ffffffff1663ffffffff16815260200191505060405180910390f35b34801561061557600080fd5b506106586004803603602081101561062c57600080fd5b81019080803573ffffffffffffffffffffffffffffffffffffffff1690602001909291905050506115e1565b005b34801561066657600080fd5b506106de6004803603602081101561067d57600080fd5b810190808035906020019064010000000081111561069a57600080fd5b8201836020820111156106ac57600080fd5b803590602001918460208302840111640100000000831117156106ce57600080fd5b9091929391929390505050611749565b6040518080602001828103825283818151815260200191508051906020019060200280838360005b83811015610721578082015181840152602081019050610706565b505050509050019250505060405180910390f35b34801561074157600080fd5b506107846004803603602081101561075857600080fd5b81019080803573ffffffffffffffffffffffffffffffffffffffff1690602001909291905050506117ec565b005b34801561079257600080fd5b5061079b611954565b6040518082815260200191505060405180910390f35b3480156107bd57600080fd5b506107ea600480360360208110156107d457600080fd5b8101908080359060200190929190505050611984565b6040518082815260200191505060405180910390f35b34801561080c57600080fd5b5061081561199e565b604051808263ffffffff1663ffffffff16815260200191505060405180910390f35b34801561084357600080fd5b5061084c6119a3565b604051808273ffffffffffffffffffffffffffffffffffffffff1673ffffffffffffffffffffffffffffffffffffffff16815260200191505060405180910390f35b61090f600480360360408110156108a457600080fd5b8101908080359060200190929190803590602001906401000000008111156108cb57600080fd5b8201836020820111156108dd57600080fd5b803590602001918460018302840111640100000000831117156108ff57600080fd5b90919293919293905050506119c9565b005b34801561091d57600080fd5b5061094a6004803603602081101561093457600080fd5b8101908080359060200190929190505050611c09565b604051808215151515815260200191505060405180910390f35b34801561097057600080fd5b5061099d6004803603602081101561098757600080fd5b8101908080359060200190929190505050611c33565b6040518082815260200191505060405180910390f35b3480156109bf57600080fd5b506109c8611c56565b6040518082815260200191505060405180910390f35b3480156109ea57600080fd5b506109f3611c5c565b6040518082815260200191505060405180910390f35b348015610a1557600080fd5b50610a4260048036036020811015610a2c57600080fd5b8101908080359060200190929190505050611c80565b6040518082815260200191505060405180910390f35b348015610a6457600080fd5b50610a6d611ca3565b604051808273ffffffffffffffffffffffffffffffffffffffff1673ffffffffffffffffffffffffffffffffffffffff16815260200191505060405180910390f35b348015610abb57600080fd5b50610ac4611cc9565b604051808263ffffffff1663ffffffff16815260200191505060405180910390f35b606a6020528060005260406000206000915054906101000a900460ff1681565b606860009054906101000a900460ff161515610b8a576040517f08c379a000000000000000000000000000000000000000000000000000000000815260040180806020018281038252601f8152602001807f5265656e7472616e637947756172643a207265656e7472616e742063616c6c0081525060200191505060405180910390fd5b6000606860006101000a81548160ff0219169083151502179055506069548211151515610c1f576040517f08c379a000000000000000000000000000000000000000000000000000000000815260040180806020018281038252601a8152602001807f4665652065786365656473207472616e736665722076616c756500000000000081525060200191505060405180910390fd5b606a600086815260200190815260200160002060009054906101000a900460ff16151515610cb5576040517f08c379a000000000000000000000000000000000000000000000000000000000815260040180806020018281038252601f8152602001807f546865206e6f746520686173206265656e20616c7265616479207370656e740081525060200191505060405180910390fd5b610cbe866114d9565b1515610d32576040517f08c379a000000000000000000000000000000000000000000000000000000000815260040180806020018281038252601c8152602001807f43616e6e6f742066696e6420796f7572206d65726b6c6520726f6f740000000081525060200191505060405180910390fd5b606c60009054906101000a900473ffffffffffffffffffffffffffffffffffffffff1673ffffffffffffffffffffffffffffffffffffffff1663695ef6f989896040518060c001604052808b60001c81526020018a60001c81526020018973ffffffffffffffffffffffffffffffffffffffff1681526020018873ffffffffffffffffffffffffffffffffffffffff168152602001878152602001868152506040518463ffffffff1660e01b8152600401808060200183600660200280838360005b83811015610e0f578082015181840152602081019050610df4565b505050509050018281038252858582818152602001925080828437600081840152601f19601f820116905080830192505050945050505050602060405180830381600087803b158015610e6157600080fd5b505af1158015610e75573d6000803e3d6000fd5b505050506040513d6020811015610e8b57600080fd5b81019080805190602001909291905050501515610f10576040517f08c379a00000000000000000000000000000000000000000000000000000000081526004018080602001828103825260168152602001807f496e76616c69642077697468647261772070726f6f660000000000000000000081525060200191505060405180910390fd5b6001606a600087815260200190815260200160002060006101000a81548160ff021916908315150217905550610f4884848484611cdf565b8273ffffffffffffffffffffffffffffffffffffffff167fe9e508bad6d4c3227e881ca19068f099da81b5164dd6d62b2eaf1e8bc6c34931858785604051808473ffffffffffffffffffffffffffffffffffffffff1673ffffffffffffffffffffffffffffffffffffffff168152602001838152602001828152602001935050505060405180910390a26001606860006101000a81548160ff0219169083151502179055505050505050505050565b606c60009054906101000a900473ffffffffffffffffffffffffffffffffffffffff1681565b60007f30644e72e131a029b85045b68181585d2833e84879b9709143e1f593f00000018360001c1015156110b9576040517f08c379a00000000000000000000000000000000000000000000000000000000081526004018080602001828103825260208152602001807f5f6c6566742073686f756c6420626520696e7369646520746865206669656c6481525060200191505060405180910390fd5b7f30644e72e131a029b85045b68181585d2833e84879b9709143e1f593f00000018260001c101515611136576040517f08c379a000000000000000000000000000000000000000000000000000000000815260040180806020018281038252602181526020018061303c6021913960400191505060405180910390fd5b60008360001c9050600080905073__Hasher________________________________63f47d33b583836040518363ffffffff1660e01b81526004018083815260200182815260200192505050604080518083038186803b15801561119957600080fd5b505af41580156111ad573d6000803e3d6000fd5b505050506040513d60408110156111c357600080fd5b81019080805190602001909291908051906020019092919050505080925081935050507f30644e72e131a029b85045b68181585d2833e84879b9709143e1f593f000000180151561121057fe5b8460001c8308915073__Hasher________________________________63f47d33b583836040518363ffffffff1660e01b81526004018083815260200182815260200192505050604080518083038186803b15801561126e57600080fd5b505af4158015611282573d6000803e3d6000fd5b505050506040513d604081101561129857600080fd5b81019080805190602001909291908051906020019092919050505080925081935050508160001b9250505092915050565b7f30644e72e131a029b85045b68181585d2833e84879b9709143e1f593f000000181565b6000809054906101000a900463ffffffff1681565b60008173ffffffffffffffffffffffffffffffffffffffff166370a08231306040518263ffffffff1660e01b8152600401808273ffffffffffffffffffffffffffffffffffffffff1673ffffffffffffffffffffffffffffffffffffffff16815260200191505060206040518083038186803b15801561138157600080fd5b505afa158015611395573d6000803e3d6000fd5b505050506040513d60208110156113ab57600080fd5b8101908080519060200190929190505050905060008190506113cc83611d0e565b156113e9576113e660715483611d6890919063ffffffff16565b90505b600081111515611461576040517f08c379a00000000000000000000000000000000000000000000000000000000081526004018080602001828103825260168152602001807f43616e277420636c61696d2061203020616d6f756e740000000000000000000081525060200191505060405180910390fd5b6114ae607060009054906101000a900473ffffffffffffffffffffffffffffffffffffffff16828573ffffffffffffffffffffffffffffffffffffffff16611db29092919063ffffffff16565b505050565b607060009054906101000a900473ffffffffffffffffffffffffffffffffffffffff1681565b60008060001b8214156114ef576000905061157a565b6000600360009054906101000a900463ffffffff1690505b60048163ffffffff1660648110151561151c57fe5b015483141561152f57600191505061157a565b60008163ffffffff16141561154357606490505b808060019003915050600360009054906101000a900463ffffffff1663ffffffff168163ffffffff16141515156115075760009150505b919050565b606b6020528060005260406000206000915054906101000a900460ff1681565b60695481565b606e60009054906101000a900473ffffffffffffffffffffffffffffffffffffffff1681565b600360009054906101000a900463ffffffff1681565b606e60009054906101000a900473ffffffffffffffffffffffffffffffffffffffff1673ffffffffffffffffffffffffffffffffffffffff163373ffffffffffffffffffffffffffffffffffffffff16141515611689576040517f08c379a0000000000000000000000000000000000000000000000000000000008152600401808060200182810382526022815260200180612f6a6022913960400191505060405180910390fd5b8073ffffffffffffffffffffffffffffffffffffffff16606c60009054906101000a900473ffffffffffffffffffffffffffffffffffffffff1673ffffffffffffffffffffffffffffffffffffffff167f0ddda8be1021ab00f63727c5c5504ad96b163269770a3fe8ac3dd0bcb40208df60405160405180910390a380606c60006101000a81548173ffffffffffffffffffffffffffffffffffffffff021916908373ffffffffffffffffffffffffffffffffffffffff16021790555050565b60608282905060405190808252806020026020018201604052801561177d5781602001602082028038833980820191505090505b50905060008090505b838390508110156117e5576117ae84848381811015156117a257fe5b90506020020135611c09565b156117d857600182828151811015156117c357fe5b90602001906020020190151590811515815250505b8080600101915050611786565b5092915050565b606e60009054906101000a900473ffffffffffffffffffffffffffffffffffffffff1673ffffffffffffffffffffffffffffffffffffffff163373ffffffffffffffffffffffffffffffffffffffff16141515611894576040517f08c379a0000000000000000000000000000000000000000000000000000000008152600401808060200182810382526022815260200180612f6a6022913960400191505060405180910390fd5b8073ffffffffffffffffffffffffffffffffffffffff16606e60009054906101000a900473ffffffffffffffffffffffffffffffffffffffff1673ffffffffffffffffffffffffffffffffffffffff167f8be0079c531659141344cd1fd0a4f28419497f9722a3daafe3b4186f6b6457e060405160405180910390a380606e60006101000a81548173ffffffffffffffffffffffffffffffffffffffff021916908373ffffffffffffffffffffffffffffffffffffffff16021790555050565b60006004600360009054906101000a900463ffffffff1663ffffffff1660648110151561197d57fe5b0154905090565b60048160648110151561199357fe5b016000915090505481565b606481565b606d60009054906101000a900473ffffffffffffffffffffffffffffffffffffffff1681565b606860009054906101000a900460ff161515611a4d576040517f08c379a000000000000000000000000000000000000000000000000000000000815260040180806020018281038252601f8152602001807f5265656e7472616e637947756172643a207265656e7472616e742063616c6c0081525060200191505060405180910390fd5b6000606860006101000a81548160ff021916908315150217905550606b600084815260200190815260200160002060009054906101000a900460ff16151515611ae1576040517f08c379a000000000000000000000000000000000000000000000000000000000815260040180806020018281038252602181526020018061308c6021913960400191505060405180910390fd5b6000611aec84611e83565b90506001606b600086815260200190815260200160002060006101000a81548160ff021916908315150217905550611b226120ec565b837fa945e51eec50ab98c161376f0db4cf2aeba3ec92755fe2fcd388bdbbb80ff1968242604051808363ffffffff1663ffffffff1681526020018281526020019250505060405180910390a23373ffffffffffffffffffffffffffffffffffffffff167ffa28df43db3553771f7209dcef046f3bdfea15870ab625dcda30ac58b82b4008848460405180806020018281038252848482818152602001925080828437600081840152601f19601f820116905080830192505050935050505060405180910390a2506001606860006101000a81548160ff021916908315150217905550505050565b6000606a600083815260200190815260200160002060009054906101000a900460ff169050919050565b600281815481101515611c4257fe5b906000526020600020016000915090505481565b60715481565b7f2fe54c60d3acabf3343a35b6eba15db4821b340f76e741e2249685ed4899af6c81565b600181815481101515611c8f57fe5b906000526020600020016000915090505481565b606f60009054906101000a900473ffffffffffffffffffffffffffffffffffffffff1681565b600360049054906101000a900463ffffffff1681565b611ceb84848484612113565b611d02606954607154611d6890919063ffffffff16565b60718190555050505050565b6000606f60009054906101000a900473ffffffffffffffffffffffffffffffffffffffff1673ffffffffffffffffffffffffffffffffffffffff168273ffffffffffffffffffffffffffffffffffffffff16149050919050565b6000611daa83836040518060400160405280601e81526020017f536166654d6174683a207375627472616374696f6e206f766572666c6f770000815250612436565b905092915050565b611e7e838473ffffffffffffffffffffffffffffffffffffffff1663a9059cbb905060e01b8484604051602401808373ffffffffffffffffffffffffffffffffffffffff1673ffffffffffffffffffffffffffffffffffffffff16815260200182815260200192505050604051602081830303815290604052907bffffffffffffffffffffffffffffffffffffffffffffffffffffffff19166020820180517bffffffffffffffffffffffffffffffffffffffffffffffffffffffff83818316178352505050506124f8565b505050565b600080600360049054906101000a900463ffffffff1690506000809054906101000a900463ffffffff1663ffffffff16600263ffffffff160a63ffffffff168163ffffffff1614151515611f22576040517f08c379a000000000000000000000000000000000000000000000000000000000815260040180806020018281038252602f815260200180612f8c602f913960400191505060405180910390fd5b6001600360048282829054906101000a900463ffffffff160192506101000a81548163ffffffff021916908363ffffffff160217905550600083905060008060008090505b6000809054906101000a900463ffffffff1663ffffffff168163ffffffff16101561204f57600060028663ffffffff16811515611fa057fe5b0663ffffffff161415611ffb5783925060028163ffffffff16815481101515611fc557fe5b906000526020600020015491508360018263ffffffff16815481101515611fe857fe5b9060005260206000200181905550612021565b60018163ffffffff1681548110151561201057fe5b906000526020600020015492508391505b61202b838361101d565b935060028563ffffffff1681151561203f57fe5b0494508080600101915050611f67565b50606463ffffffff166001600360009054906101000a900463ffffffff160163ffffffff1681151561207d57fe5b06600360006101000a81548163ffffffff021916908363ffffffff160217905550826004600360009054906101000a900463ffffffff1663ffffffff166064811015156120c657fe5b01819055506001600360049054906101000a900463ffffffff1603945050505050919050565b6120f461274b565b61210b6069546071546127b590919063ffffffff16565b607181905550565b803414151561216d576040517f08c379a0000000000000000000000000000000000000000000000000000000008152600401808060200182810382526030815260200180612fe56030913960400191505060405180910390fd5b6000606d60009054906101000a900473ffffffffffffffffffffffffffffffffffffffff1673ffffffffffffffffffffffffffffffffffffffff1663017e7e586040518163ffffffff1660e01b815260040160206040518083038186803b1580156121d757600080fd5b505afa1580156121eb573d6000803e3d6000fd5b505050506040513d602081101561220157600080fd5b810190808051906020019092919050505090506000606d60009054906101000a900473ffffffffffffffffffffffffffffffffffffffff1673ffffffffffffffffffffffffffffffffffffffff16633b46a6e76040518163ffffffff1660e01b815260040160206040518083038186803b15801561227e57600080fd5b505afa158015612292573d6000803e3d6000fd5b505050506040513d60208110156122a857600080fd5b8101908080519060200190929190505050905060008073ffffffffffffffffffffffffffffffffffffffff168373ffffffffffffffffffffffffffffffffffffffff16141580156122fa575060008214155b905080156123405760006123106069548461283f565b90506123308861232b6069546123268a866127b5565b611d68565b612889565b61233a8482612889565b50612356565b6123558761235060695488611d68565b612889565b5b600085111561236a576123698686612889565b5b600084111561242d5760008773ffffffffffffffffffffffffffffffffffffffff168560405180600001905060006040518083038185875af1925050503d80600081146123d3576040519150601f19603f3d011682016040523d82523d6000602084013e6123d8565b606091505b5050905080151561242b578673ffffffffffffffffffffffffffffffffffffffff166108fc869081150290604051600060405180830381858888f19350505050158015612429573d6000803e3d6000fd5b505b505b50505050505050565b600083831115829015156124e5576040517f08c379a00000000000000000000000000000000000000000000000000000000081526004018080602001828103825283818151815260200191508051906020019080838360005b838110156124aa57808201518184015260208101905061248f565b50505050905090810190601f1680156124d75780820380516001836020036101000a031916815260200191505b509250505060405180910390fd5b5060008385039050809150509392505050565b6125178273ffffffffffffffffffffffffffffffffffffffff16612b54565b151561258b576040517f08c379a000000000000000000000000000000000000000000000000000000000815260040180806020018281038252601f8152602001807f5361666545524332303a2063616c6c20746f206e6f6e2d636f6e74726163740081525060200191505060405180910390fd5b600060608373ffffffffffffffffffffffffffffffffffffffff16836040518082805190602001908083835b6020831015156125dc57805182526020820191506020810190506020830392506125b7565b6001836020036101000a0380198251168184511680821785525050505050509050019150506000604051808303816000865af19150503d806000811461263e576040519150601f19603f3d011682016040523d82523d6000602084013e612643565b606091505b50915091508115156126bd576040517f08c379a00000000000000000000000000000000000000000000000000000000081526004018080602001828103825260208152602001807f5361666545524332303a206c6f772d6c6576656c2063616c6c206661696c656481525060200191505060405180910390fd5b600081511115612745578080602001905160208110156126dc57600080fd5b81019080805190602001909291905050501515612744576040517f08c379a000000000000000000000000000000000000000000000000000000000815260040180806020018281038252602a8152602001806130dd602a913960400191505060405180910390fd5b5b50505050565b6000341415156127a6576040517f08c379a00000000000000000000000000000000000000000000000000000000081526004018080602001828103825260308152602001806130ad6030913960400191505060405180910390fd5b6127b33330606954612b9f565b565b6000808284019050838110151515612835576040517f08c379a000000000000000000000000000000000000000000000000000000000815260040180806020018281038252601b8152602001807f536166654d6174683a206164646974696f6e206f766572666c6f77000000000081525060200191505060405180910390fd5b8091505092915050565b600061288183836040518060400160405280601a81526020017f536166654d6174683a206469766973696f6e206279207a65726f000000000000815250612e9f565b905092915050565b60006060606f60009054906101000a900473ffffffffffffffffffffffffffffffffffffffff1673ffffffffffffffffffffffffffffffffffffffff1663a9059cbb8585604051602401808373ffffffffffffffffffffffffffffffffffffffff1673ffffffffffffffffffffffffffffffffffffffff168152602001828152602001925050506040516020818303038152906040529060e01b6020820180517bffffffffffffffffffffffffffffffffffffffffffffffffffffffff83818316178352505050506040518082805190602001908083835b6020831015156129865780518252602082019150602081019050602083039250612961565b6001836020036101000a0380198251168184511680821785525050505050509050019150506000604051808303816000865af19150503d80600081146129e8576040519150601f19603f3d011682016040523d82523d6000602084013e6129ed565b606091505b5091509150811515612a67576040517f08c379a00000000000000000000000000000000000000000000000000000000081526004018080602001828103825260118152602001807f6e6f7420656e6f75676820746f6b656e7300000000000000000000000000000081525060200191505060405180910390fd5b600081511115612b4e5760208151141515612acd576040517f08c379a000000000000000000000000000000000000000000000000000000000815260040180806020018281038252602a815260200180612fbb602a913960400191505060405180910390fd5b808060200190516020811015612ae257600080fd5b81019080805190602001909291905050509150811515612b4d576040517f08c379a00000000000000000000000000000000000000000000000000000000081526004018080602001828103825260278152602001806130156027913960400191505060405180910390fd5b5b50505050565b60008060007fc5d2460186f7233c927e7db2dcc703c0e500b653ca82273b7bfad8045d85a47060001b9050833f9150808214158015612b9657506000801b8214155b92505050919050565b60006060606f60009054906101000a900473ffffffffffffffffffffffffffffffffffffffff1673ffffffffffffffffffffffffffffffffffffffff166323b872dd868686604051602401808473ffffffffffffffffffffffffffffffffffffffff1673ffffffffffffffffffffffffffffffffffffffff1681526020018373ffffffffffffffffffffffffffffffffffffffff1673ffffffffffffffffffffffffffffffffffffffff16815260200182815260200193505050506040516020818303038152906040529060e01b6020820180517bffffffffffffffffffffffffffffffffffffffffffffffffffffffff83818316178352505050506040518082805190602001908083835b602083101515612cd05780518252602082019150602081019050602083039250612cab565b6001836020036101000a0380198251168184511680821785525050505050509050019150506000604051808303816000865af19150503d8060008114612d32576040519150601f19603f3d011682016040523d82523d6000602084013e612d37565b606091505b5091509150811515612db1576040517f08c379a00000000000000000000000000000000000000000000000000000000081526004018080602001828103825260198152602001807f6e6f7420656e6f75676820616c6c6f77656420746f6b656e730000000000000081525060200191505060405180910390fd5b600081511115612e985760208151141515612e17576040517f08c379a000000000000000000000000000000000000000000000000000000000815260040180806020018281038252602a815260200180612fbb602a913960400191505060405180910390fd5b808060200190516020811015612e2c57600080fd5b81019080805190602001909291905050509150811515612e97576040517f08c379a000000000000000000000000000000000000000000000000000000000815260040180806020018281038252602f81526020018061305d602f913960400191505060405180910390fd5b5b5050505050565b600080831182901515612f4d576040517f08c379a00000000000000000000000000000000000000000000000000000000081526004018080602001828103825283818151815260200191508051906020019080838360005b83811015612f12578082015181840152602081019050612ef7565b50505050905090810190601f168015612f3f5780820380516001836020036101000a031916815260200191505b509250505060405180910390fd5b5060008385811515612f5b57fe5b04905080915050939250505056fe4f6e6c79206f776e65722063616e2063616c6c20746869732066756e6374696f6e2e4d65726b6c6520747265652069732066756c6c2e204e6f206d6f7265206c656166732063616e20626520616464656464617461206c656e6774682073686f756c64206265206569746865722030206f72203332206279746573496e636f727265637420726566756e6420616d6f756e742072656365697665642062792074686520636f6e74726163746e6f7420656e6f75676820746f6b656e732e20546f6b656e2072657475726e732066616c73652e5f72696768742073686f756c6420626520696e7369646520746865206669656c646e6f7420656e6f75676820616c6c6f77656420746f6b656e732e20546f6b656e2072657475726e732066616c73652e54686520636f6d6d69746d656e7420686173206265656e207375626d69747465644554482076616c756520697320737570706f73656420746f206265203020666f7220455243323020696e7374616e63655361666545524332303a204552433230206f7065726174696f6e20646964206e6f742073756363656564a165627a7a72305820ecbddae330db8a10f6cc61babdf5daab0cd25edeeac41cddefd6fa1f5f5fe536002964656e6f6d696e6174696f6e2073686f756c642062652067726561746572207468616e20305f72696768742073686f756c6420626520696e7369646520746865206669656c645f747265654c6576656c732073686f756c642062652067726561746572207468616e207a65726f5f747265654c6576656c732073686f756c64206265206c657373207468616e203332",
  "source": "// SPDX-License-Identifier: MIT\npragma solidity ^0.5.5;\n\nimport \"./ERC20Tornado.sol\";\nimport \"@openzeppelin/contracts/math/SafeMath.sol\";\nimport \"@openzeppelin/contracts/token/ERC20/IERC20.sol\";\nimport \"@openzeppelin/contracts/token/ERC20/SafeERC20.sol\";\n\ncontract ERC20Morphose is ERC20Tornado {\n  using SafeERC20 for IERC20;\n  using SafeMath for uint256;\n\n  address public governance;\n  uint256 public totalDepositBalance;\n\n  constructor(\n    IVerifier _verifier,\n    IFeeManager _feeManager,\n    uint256 _denomination,\n    uint32 _merkleTreeHeight,\n    address _owner,\n    address _token,\n    address _governance\n  ) ERC20Tornado(_verifier, _feeManager, _denomination, _merkleTreeHeight, _owner, _token) public {\n    governance = _governance;\n  }\n\n  function _processDeposit() internal {\n    super._processDeposit();\n    totalDepositBalance = totalDepositBalance.add(denomination);\n  }\n\n  function _processWithdraw(address payable _recipient, address payable _relayer, uint256 _relayer_fee, uint256 _refund) internal {\n    super._processWithdraw(\n      _recipient,\n      _relayer,\n      _relayer_fee,\n      _refund\n    );\n    totalDepositBalance = totalDepositBalance.sub(denomination);\n  }\n\n  // @dev Claims extra tokens in contract to send back to governance\n  // @param token The token address to claim\n  function governanceClaim(IERC20 _token) external {\n    uint256 balance = _token.balanceOf(address(this));\n    uint256 claimable = balance;\n    if (_isPoolToken(address(_token))) {\n      claimable = balance.sub(totalDepositBalance);\n    }\n    require(claimable > 0, \"Can't claim a 0 amount\");\n    _token.safeTransfer(governance, claimable);\n  }\n\n  function _isPoolToken(address _token) internal returns (bool) {\n    return _token == token;\n  }\n}\n",
  "sourcePath": "/Users/gautam/Documents/semilla-contracts/contracts/ERC20Morphose.sol",
  "compiler": {
    "name": "solc",
    "version": "0.5.5+commit.47a71e8f.Emscripten.clang"
  },
  "schemaVersion": "3.2.3",
  "updatedAt": "2022-01-15T09:56:49.085Z",
  "devdoc": {
    "methods": {
      "changeOwner(address)": {
        "details": "owner can change his address "
      },
      "deposit(bytes32,bytes)": {
        "details": "Deposit funds into the contract. The caller must send (for ETH) or approve (for ERC20) value equal to or `denomination` of this instance.",
        "params": {
          "_commitment": "the note commitment, which is PedersenHash(nullifier + secret)"
        }
      },
      "getLastRoot()": {
        "details": "Returns the last root"
      },
      "hashLeftRight(bytes32,bytes32)": {
        "details": "Hash 2 tree leaves, returns MiMC(_left, _right)"
      },
      "isKnownRoot(bytes32)": {
        "details": "Whether the root is present in the root history"
      },
      "isSpent(bytes32)": {
        "details": "whether a note is already spent "
      },
      "isSpentArray(bytes32[])": {
        "details": "whether an array of notes is already spent "
      },
      "updateVerifier(address)": {
        "details": "allow owner to update SNARK verification keys. This is needed to update keys after the final trusted setup ceremony is held. After that owner rights are supposed to be transferred to zero address"
      },
      "withdraw(bytes,bytes32,bytes32,address,address,uint256,uint256)": {
        "details": "Withdraw a deposit from the contract. `proof` is a zkSNARK proof data, and input is an array of circuit public inputs `input` array consists of: - merkle root of all deposits in the contract - hash of unique deposit nullifier to prevent double spends - the recipient of funds - optional fee that goes to the transaction sender (usually a relay)"
      }
    }
  },
  "userdoc": {
    "methods": {}
  }
}