{
  "contractName": "LendingPool",
  "abi": [
    {
      "inputs": [
        {
          "internalType": "contract LendingPoolCore",
          "name": "_core",
          "type": "address"
        }
      ],
      "payable": false,
      "stateMutability": "nonpayable",
      "type": "constructor"
    },
    {
      "constant": false,
      "inputs": [
        {
          "internalType": "address",
          "name": "_reserve",
          "type": "address"
        },
        {
          "internalType": "uint256",
          "name": "_amount",
          "type": "uint256"
        },
        {
          "internalType": "uint16",
          "name": "_moolaReferralCode",
          "type": "uint16"
        }
      ],
      "name": "deposit",
      "outputs": [],
      "payable": true,
      "stateMutability": "payable",
      "type": "function"
    }
  ],
  "bytecode": "0x608060405234801561001057600080fd5b506040516101fe3803806101fe8339818101604052602081101561003357600080fd5b5051600080546001600160a01b039092166001600160a01b0319909216919091179055610199806100656000396000f3fe60806040526004361061001e5760003560e01c8063d2d0e06614610023575b600080fd5b6100596004803603606081101561003957600080fd5b5080356001600160a01b0316906020810135906040013561ffff1661005b565b005b6000809054906101000a90046001600160a01b03166001600160a01b031663fc0c546a6040518163ffffffff1660e01b815260040160206040518083038186803b1580156100a857600080fd5b505afa1580156100bc573d6000803e3d6000fd5b505050506040513d60208110156100d257600080fd5b50516001600160a01b0384811691161480156100f357508061ffff16610fa5145b1561015f5760008054604080516311f9fbc960e21b81523360048201526024810186905290516001600160a01b03909216926347e7ef249260448084019382900301818387803b15801561014657600080fd5b505af115801561015a573d6000803e3d6000fd5b505050505b50505056fea265627a7a72315820a976127b806775ec294cfec5c9be709f7ae721af2d9043165af5dd3ef63b2cda64736f6c63430005110032",
  "source": "pragma solidity ^0.5.0;\n\nimport \"../../interfaces/IMoola.sol\";\nimport \"./LendingPoolCore.sol\";\n\ncontract LendingPool {\n  LendingPoolCore core;\n\n  constructor (LendingPoolCore _core) public {\n    core = _core;\n  }\n\n  function deposit(\n    address _reserve,\n    uint256 _amount,\n    uint16 _moolaReferralCode\n  ) external payable {\n    if (_reserve == core.token() && _moolaReferralCode == 4005) {\n      core.deposit(msg.sender, _amount);\n    }\n  }\n}\n\n\n",
  "sourcePath": "/Users/gautam/Documents/poof-core/contracts/Mocks/moola/LendingPool.sol",
  "compiler": {
    "name": "solc",
    "version": "0.5.17+commit.d19bba13.Emscripten.clang"
  },
  "schemaVersion": "3.2.3",
  "updatedAt": "2021-11-21T05:39:00.577Z",
  "devdoc": {
    "methods": {}
  },
  "userdoc": {
    "methods": {}
  }
}