{
  "contractName": "LendingPoolCore",
  "abi": [
    {
      "inputs": [
        {
          "internalType": "contract AToken",
          "name": "_aToken",
          "type": "address"
        }
      ],
      "payable": false,
      "stateMutability": "nonpayable",
      "type": "constructor"
    },
    {
      "constant": true,
      "inputs": [],
      "name": "aToken",
      "outputs": [
        {
          "internalType": "address",
          "name": "",
          "type": "address"
        }
      ],
      "payable": false,
      "stateMutability": "view",
      "type": "function"
    },
    {
      "constant": true,
      "inputs": [],
      "name": "token",
      "outputs": [
        {
          "internalType": "address",
          "name": "",
          "type": "address"
        }
      ],
      "payable": false,
      "stateMutability": "view",
      "type": "function"
    },
    {
      "constant": true,
      "inputs": [
        {
          "internalType": "address",
          "name": "_token",
          "type": "address"
        }
      ],
      "name": "getReserveATokenAddress",
      "outputs": [
        {
          "internalType": "address",
          "name": "",
          "type": "address"
        }
      ],
      "payable": false,
      "stateMutability": "view",
      "type": "function"
    },
    {
      "constant": false,
      "inputs": [
        {
          "internalType": "address",
          "name": "lender",
          "type": "address"
        },
        {
          "internalType": "uint256",
          "name": "amount",
          "type": "uint256"
        }
      ],
      "name": "deposit",
      "outputs": [],
      "payable": false,
      "stateMutability": "nonpayable",
      "type": "function"
    }
  ],
  "bytecode": "0x608060405234801561001057600080fd5b506040516103563803806103568339818101604052602081101561003357600080fd5b5051600080546001600160a01b0319166001600160a01b03831690811790915560408051636f307dc360e01b81529051636f307dc391600480820192602092909190829003018186803b15801561008957600080fd5b505afa15801561009d573d6000803e3d6000fd5b505050506040513d60208110156100b357600080fd5b5051600180546001600160a01b0319166001600160a01b0390921691909117905550610272806100e46000396000f3fe608060405234801561001057600080fd5b506004361061004c5760003560e01c806334b3beee1461005157806347e7ef2414610093578063a0c1f15e146100c1578063fc0c546a146100c9575b600080fd5b6100776004803603602081101561006757600080fd5b50356001600160a01b03166100d1565b604080516001600160a01b039092168252519081900360200190f35b6100bf600480360360408110156100a957600080fd5b506001600160a01b038135169060200135610105565b005b61007761021f565b61007761022e565b6001546000906001600160a01b03838116911614156100fc57506000546001600160a01b0316610100565b5060005b919050565b60015460008054604080516323b872dd60e01b81526001600160a01b038781166004830152928316602482015260448101869052905191909316926323b872dd9260648083019360209390929083900390910190829087803b15801561016a57600080fd5b505af115801561017e573d6000803e3d6000fd5b505050506040513d602081101561019457600080fd5b505060008054604080516340c10f1960e01b81526001600160a01b03868116600483015260248201869052915191909216926340c10f1992604480820193602093909283900390910190829087803b1580156101ef57600080fd5b505af1158015610203573d6000803e3d6000fd5b505050506040513d602081101561021957600080fd5b50505050565b6000546001600160a01b031681565b6001546001600160a01b03168156fea265627a7a723158207fbe90c076da2e611d0a57815203d652a14c768286babf405b44ac6435f108c164736f6c63430005110032",
  "source": "pragma solidity ^0.5.0;\n\nimport \"../../interfaces/IMoola.sol\";\nimport \"../ERC20Mock.sol\";\nimport \"./AToken.sol\";\nimport \"@openzeppelin/contracts/token/ERC20/IERC20.sol\";\n\ncontract LendingPoolCore is ILendingPoolCore {\n  address public aToken;\n  address public token;\n\n  constructor (AToken _aToken) public {\n    aToken = address(_aToken);\n    token = address(_aToken.underlying());\n  }\n\n  function getReserveATokenAddress(address _token) external view returns (address) {\n    if (_token == token) {\n      return aToken;\n    }\n    return address(0);\n  }\n\n  function deposit(address lender, uint256 amount) external {\n    IERC20(token).transferFrom(lender, aToken, amount);\n    ERC20Mock(aToken).mint(lender, amount);\n  }\n}\n\n",
  "sourcePath": "/Users/gautam/Documents/poof-core/contracts/Mocks/moola/LendingPoolCore.sol",
  "compiler": {
    "name": "solc",
    "version": "0.5.17+commit.d19bba13.Emscripten.clang"
  },
  "schemaVersion": "3.2.3",
  "updatedAt": "2021-11-21T05:39:00.578Z",
  "devdoc": {
    "methods": {}
  },
  "userdoc": {
    "methods": {}
  }
}